:100000000C9482020C94C9020C94C9020C94C9028B
:100010000C94C9020C94C9020C94C9020C94C90234
:100020000C94C9020C94C9020C94631E0C94361FE4
:100030000C94B4150C94C9020C94C9020C94C90216
:100040000C94C9020C94C9020C94C9020C94C90204
:100050000C94C9020C941C160C94C9020C94C9028D
:100060000C94C9020C94C9020C94C9020C94C902E4
:100070000C94C9020C94C9020C94C9020C94C902D4
:100080000C94C9020C94C9020C94C9020C94C902C4
:100090000C94C9020C94C9020C94C9020C94C902B4
:1000A0000C94C9020C94C9020C94C9020001E3012A
:1000B00028022802E3000001E3012E022E02E300E1
:1000C0000001E3012D022D02E3000001E301E5013F
:1000D00030023002E502E3000001E301E5012F02F6
:1000E0002F02E502E3000001E30130023002E300E9
:1000F0000001E3012F022F02E30028A2F1A134A3A3
:1001000000D300C001C002C003C004C005C033A4B6
:1001100006C035A5CC0014001A0008001500170011
:100120001C0018000C00120013002A002B00040011
:100130001600070009000A000B000D000E000F005A
:10014000CA00C200E1001D001B00060019000500E6
:1001500011001000360037003800E500E000E20032
:10016000E3002C00000000000000C000C100E70018
:100170000000E40039001E001F00200021002200C2
:10018000230024002500260027004C0029003A0007
:100190003B003C003D003E003F002D002E002F00A4
:1001A00030003100010040004100420043004400A3
:1001B0004500320064004B004E00010001000100C8
:1001C000010001000000000000000100010001002A
:1001D000000001000100C600C7000100010001008D
:1001E000010001000100C800C9004C002900010005
:1001F000FB00F900FA00FC005000510052004F00D3
:100200000100CB000100C400C50001000100010095
:1002100001000100010001000100010001000100D6
:1002200001000100000000000000010001000100C9
:10023000000001000100470048000100010001002A
:100240000100010001000100010001000100A900FE
:1002500001000100010001000100BC00AE00BB0074
:10026000010001000100AA0032700100010001003C
:100270000100010001000100010001000071010006
:100280000100010000000000000001000100010069
:100290000000010001000100010001000100010057
:1002A000F400F5000100010001000100010001005F
:1002B000FB00F900FA00FC00F200F100F000F3008E
:1002C0000100010001000100010001000100010026
:1002D0000100010001000100010001000100010016
:1002E0000100010000000000000001000100010009
:1002F0000000010001001E021F0220022102220252
:1003000023022402250226022702010001006800C0
:1003100069006A006B006C006D002D022E022F0236
:100320003002310601006E006F0070007100720033
:100330007300320064004A004D000100010001001A
:1003400001000100000000000000010001000100A8
:1003500000000100140354006800650056006100AD
:100360006E002000340034000000180345007600C1
:1003700061006E0020005300610069006C006500A0
:10038000720000000403090409026D00040100A0CA
:10039000FA09040000010301010009211101000113
:1003A0002240000705810308000A09040100010337
:1003B000010200092111010001224D0007058203FD
:1003C00008000A09040200010300000009211101CC
:1003D00000012236000705830308000A0904030010
:1003E0000103000000092111010001223900070565
:1003F00084032000011201100100000008AEFE4439
:100400008802000102000105010906A10105071982
:10041000E029E715002501950875018102050819F5
:100420000129059505750191029501750391010555
:1004300007190029F71500250195F875018102C0FB
:1004400005010980A10185021601002603001A8119
:10045000002A8300751095018100C0050C0901A1D7
:10046000018503160100269C021A01002A9C0275D0
:100470001095018100C005010902A1010901A10037
:100480000509190129051500250195057501810248
:100490009501750381010501093009311581257F19
:1004A00095027508810609381581257F9501750823
:1004B0008106050C0A38021581257F950175088192
:1004C00006C0C005010906A101050719E029E715C5
:1004D00000250195087501810295017508810105C6
:1004E000081901290595057501910295017503917A
:1004F000010507190029FF150026FF00950675085C
:100500008100C00011241FBECFEFDAE0DEBFCDBFF7
:1005100004B603FE27C08091480290914902A09141
:100520004A02B0914B028730904BA740B04BD1F4B8
:10053000109248021092490210924A0210924B0205
:1005400014BE84B7877F84BF0FB6F894A8958091B6
:100550006000886180936000109260000FBEE0E050
:10056000F8E3099511E0A0E0B1E0EAEFF4E402C09D
:1005700005900D92AC34B107D9F722E0ACE4B1E0BC
:1005800001C01D92A834B207E1F70E94B51B0C947C
:100590007B220C940000FC018281462F50E0473002
:1005A000510578F5FA01E952FD4F0C942B22DE0239
:1005B000E302E802ED02F202F702FC02811124C01C
:1005C00080EF90E00895811122C086EE90E00895BA
:1005D000811120C088ED90E0089581111EC08AEC41
:1005E00090E0089581111CC080EC90E00895811185
:1005F0001AC086EB90E00895811118C08CEA90E053
:10060000089580E090E0089581EF90E0089587EEEE
:1006100090E0089589ED90E008958BEC90E00895C6
:1006200081EC90E0089587EB90E008958DEA90E0EA
:100630000895089508959C01FB0182818823C9F0E3
:1006400022333047B9F4229A80914C0190914D01A8
:1006500021E030E0009711F020E030E030934D01D0
:1006600020934C01892B19F42A9A80E008952A9846
:10067000FCCF81E0089581FF03C0229A2A98089553
:100680002298FCCF0F931F93CF93DF938C01EB0144
:100690009A9581159F41B8F410FF03C080EEFB01CD
:1006A000099511FF03C081EEFE01099512FF03C0F9
:1006B00082EEFE01099513FF03C083EEFE0109954A
:1006C0000115104128F4DF91CF911F910F910895EA
:1006D00084EEFE01099585EEFE01099586EEFE0188
:1006E000099587EEFE01DF91CF911F910F9109943B
:1006F000CF93C82F63EC7AE00E9442038C2FCF91F6
:100700000C94C30ACF93DF93EC010E94760B66E74B
:100710007BE0CE01DF91CF910C94420381E00895FC
:100720000C941B030E94140E2FEF84E39CE02150D5
:1007300080409040E1F700C000000C944116FF9209
:100740000F931F93CF93DF938C01FC01C081D18164
:100750008091840181112DC08281882329F1CE01ED
:100760000E949513F82E682FCE010E944013BE01FF
:100770008F2D0E94D004EC01B8010E9490038823C1
:1007800061F0B801CE010E94B708882331F0B801AA
:10079000CE010E94E1068111C2C080E0DF91CF91BD
:1007A0001F910F91FF900895CE010E946A13F82EB9
:1007B000DECFCE010E949513BE01DBCFF80182810E
:1007C000882359F30E949203E8CFF801828188239D
:1007D00021F380910802816080930802DECFF80146
:1007E0008281882309F4B2C00E944415811102C09D
:1007F0000E942A150E94611590E090933A0280931E
:100800003902FE01E350F047E231F105C0F4E35F45
:10081000FB4F809139020C942B222B042D043804B9
:100820002F0431043304350437043A043C043E04F5
:100830004904400442044404460448044B048091A3
:100840003902816080933902809139020E946515D6
:100850000E94140EA2CF8260F5CF8460F3CF806136
:10086000F1CF8062EFCF8064EDCF8068EBCF846002
:100870008860E8CF8E7FE6CF8D7FE4CF8B7FE2CF9D
:100880008F7EE0CF8F7DDECF8F7BDCCF8F77DACF8F
:100890008B7F877FD7CF87FB992790F921E092271D
:1008A00090FB87F9CFCFF8018281882361F0109205
:1008B00050010E94E61590934F0180934E0182E013
:1008C0000E949E0B6ACF8091500181110FC08091D0
:1008D0004E0190914F010E94F215883C910530F431
:1008E00086E20E94C30A86E20E94760B82E00E94A2
:1008F000A50B53CF8091510181110FC080914E0102
:1009000090914F010E94F215883C910530F487E2E6
:100910000E94C30A87E20E94760B80E2E8CFC531CD
:10092000F0E7DF07D8F4C23080E7D80708F057CFE8
:10093000C115E0E7DE0709F441CFC130D04709F423
:1009400044CF81E08093500180935101C801DF9131
:10095000CF911F910F91FF900C948E03CC3380E7C1
:10096000D80709F4A0CFCD33D04759F7F8018281D9
:10097000882309F4BFCF109251010E94E61590938D
:100980004F0180934E0180E29BCF0C9430070E9470
:1009900052090C9432070C943B030C94CB04089539
:1009A000972F70E02CE0929F600D711D1124FB01C8
:1009B00090E3899FE00DF11D1124EE0FFF1FEC5E07
:1009C000FE4F859194910895FC01EE0FFF1FE650B4
:1009D000FF4F8591949108950E94D0040E945F0674
:1009E000811520E4920708F08DC0811540E394073B
:1009F00008F0E7C0803E910508F071C0803C910589
:100A000008F0CBC0883A910580F4853A910508F04A
:100A1000C9C08130910509F46EC020F08430910581
:100A200008F069C080E090E008958D3B9105D0F713
:100A3000883A910509F404C1893A910509F403C182
:100A40008A3A910509F402C18B3A910509F401C172
:100A50008C3A910509F400C18B3B910509F4FFC064
:100A60008C3B910509F4FEC08D3A910509F4FDC057
:100A7000803B910509F4FCC08E3A910509F4FBC056
:100A80008F3A910509F4FAC0813B910509F4F9C048
:100A9000823B910509F4F8C0833B910509F4F7C046
:100AA000843B910509F4F6C0853B910509F4F5C036
:100AB000863B910509F4F4C0873B910509F4F3C026
:100AC000883B910509F4F2C0893B910509F4F1C016
:100AD0008A3B910509F4F0C080E094E408958F3FCB
:100AE000910509F048F4803F910508F066C0883E02
:100AF000910508F097CF0895811520E2920708F03C
:100B00005EC00895811543E5940760F5811522E5DF
:100B1000920708F061C0811541E5940708F057C0BD
:100B2000811520E5920708F44FC09C0154E03695EA
:100B300027955A95E1F7922F9370482F437021E043
:100B400030E002C0220F331F4A95E2F73C68392B90
:100B500086958695837040E2849FC0011124822B84
:100B6000932B0895811545E5940750F4811524E5EC
:100B7000920708F445C0982F8827846F906A0895DB
:100B8000811546E5940708F44FC09C0130562115A5
:100B9000304108F047CF9F704BC0805C91090E94A4
:100BA000E4040895853A910509F444C0863A910514
:100BB00009F043C082E890E40895906508959F701D
:100BC000EECF9927906C08959F70906A0895982FA2
:100BD0008827816F906A0895AC014370552721E002
:100BE00030E002C0220F331F4A95E2F786958695C2
:100BF00040E2849FC0011124822B932B9C680895AE
:100C0000AC014370552721E030E002C0220F331FB2
:100C10004A95E2F78695869540E2849FC0011124AB
:100C2000822B932B9A680895982F882788279F7185
:100C30009062089581E890E4089583E890E408952F
:100C400082EE94E4089589EE94E408958AEE94E4A3
:100C5000089585EB94E4089586EB94E4089583EB7E
:100C600094E4089584EB94E4089587EB94E4089564
:100C70008CEC94E408958DEC94E4089583E895E475
:100C800008958AE895E4089582E995E4089584E951
:100C900095E4089581E296E4089583E296E4089548
:100CA00084E296E4089585E296E4089586E296E467
:100CB000089587E296E408958AE296E41CCF82388C
:100CC000910549F1B0F48133910509F45AC048F413
:100CD0008932910509F450C08A32910509F456C051
:100CE00008958533910509F442C08933910599F03F
:100CF0000895833E910521F138F4803E910581F0FD
:100D0000823E9105A1F00895863E910501F1873E4E
:100D1000910531F10895209139022370E1F508958C
:100D20002091390220FF12C089E390E008952091BC
:100D3000390222FF0BC024FF31C080E090E008950B
:100D40002091390222FD2DC024FDF7CF0895209176
:100D5000390223FFFBCF24FDF0CF87EE90E008950A
:100D60002091390223FFF0CF86EE90E00895209184
:100D7000390225FD19C008952091390225FD17C0BB
:100D800008952091390226FD15C008952091390259
:100D900026FD13C0089580EE90E0089583EE90E064
:100DA000089582EE90E0089589E290E0089585E349
:100DB00090E008958AE290E0089581E390E0C6CF44
:100DC00008950F931F93CF938C01FB0182818111B2
:100DD00006C0C1E08C2FCF911F910F910895C09153
:100DE0005F01C11125C00531104799F70E94E00647
:100DF00081E080935F010E94E61590935E018093ED
:100E00005D01109252011092540110925301109200
:100E100056011092550110925801109257011092EC
:100E20005A011092590110925C0110925B01D2CFCD
:100E300080915D0190915E010E94F215883C9105C0
:100E400040F680915201E82FF0E0EE0FFF1FED5ABF
:100E5000FE4F118300838F5F80935201C0E0BACFB1
:100E60000C9419030C941A0385B7806885BF85B765
:100E7000806885BFA4E3B1E061E070E08D91E82F68
:100E8000E295EF70F0E041A18F709B0101C0220F4D
:100E90008A95EAF7922F9095942391A382A1822BB1
:100EA00082A381E0A833B80749F7A8E2B1E061E086
:100EB00070E08D91E82FE295EF70F0E041A18F7026
:100EC0009B0101C0220F8A95EAF7922F90959423F7
:100ED00091A382A1822B82A381E0A433B80749F7B2
:100EE00010926901109268011092610110926001E4
:100EF00010926B0110926A011092630110926201CC
:100F000010926D0110926C011092650110926401B3
:100F100010926F0110926E0110926701109266019B
:100F20000C94C5046F927F929F92AF92BF92CF9222
:100F3000DF92EF92FF920F931F93CF93DF93C0E660
:100F4000D1E094E3E92E91E0F92E01E010E0BB241A
:100F5000B394C880D98019821882D7018D917D0100
:100F6000E82FE295EF70F0E091A18F70980101C039
:100F7000220F8A95EAF7892F822B81A382A1A22EC4
:100F8000A0948A2182A3B0EABA95F1F788E2682E8C
:100F900081E0782E80E090E0D3017D913D01472FE4
:100FA00042954F7050E0DA0190969C9048815981AB
:100FB0007F70D80102C0AA0FBB1F7A95E2F7BD016E
:100FC000692109F067C0B801082E02C0660F771FBB
:100FD0000A94E2F7462B572B5983488301968C30AD
:100FE0009105D1F681A18A2181A382A1282B22A378
:100FF00088819981C816D90641F0B09270010E948B
:10100000E61590937201809371012296B1E0C83683
:10101000DB0709F09ECF80917001882351F1809108
:101020007101909172010E94F215069710F1809162
:1010300060019091610190936901809368018091B2
:1010400062019091630190936B0180936A0180919A
:1010500064019091650190936D0180936C01809182
:1010600066019091670190936F0180936E011092D9
:1010700070010E94C70481E0DF91CF911F910F9111
:10108000FF90EF90DF90CF90BF90AF909F907F90B8
:101090006F90089560E070E09DCFE82FF0E0EE0FD4
:1010A000FF1FE859FE4F8081918108950895DC016A
:1010B0001D968C911D97811111C081E01D968C9316
:1010C0001D971296ED91FC911397CD0106963097DE
:1010D00029F01E966D917C911F9709940895FC014B
:1010E0008081813029F4FB01808191810C94780307
:1010F000823021F4FB0182819381F8CF0895FC01B5
:101100008081813029F4FB01808191810C948203DC
:10111000823021F4FB0182819381F8CF0895CF932F
:10112000DF93EC018E8181111FC089819A819157D3
:1011300024E0880F991F2A95E1F7DC01A050BF4FEA
:101140001496ED91FC9115978A5F9E4F309729F088
:101150001E966D917C911F97099518821D821F82A2
:101160001092740110927301DF91CF910895EF9264
:10117000FF920F931F93CF93DF938C0180917301A4
:1011800090917401009769F00817190751F024E055
:10119000880F991F2A95E1F7FC01E050FF4081E09C
:1011A0008387780181E7F81AFB014281FFEFEF1690
:1011B000F10411F008F053C020911401022E000C2C
:1011C000330B2E153F0514F4E092140194E0EE0C5D
:1011D000FF1C9A95E1F7E701C050DF4F4C87FB01F8
:1011E00082818823A1F118870F838E818F5F8E8380
:1011F0000E94E6159A878987E881F981C7018A5F8D
:101200009E4F309719F06E857F8509958091730107
:10121000909174010097B9F008171907A1F0915740
:10122000EC0184E0CC0FDD1F8A95E1F7CE01805000
:101230009F4F21E0FC0123870E945708CE018A5F5F
:101240009E4F0E948F08109374010093730181E0F8
:10125000DF91CF911F910F91FF90EF90089544235C
:10126000B1F3809114018F3F91F3C6E0D1E000E02B
:1012700010E0FF24F39480911401082E000C990BC8
:101280008017910724F38881882341F0FD82CE01E5
:1012900006970E945708CE010E948F080F5F1F4FCC
:1012A0006096E9CF0F931F93CF93DF938091140142
:1012B0008F3F61F0C6E0D1E000E010E080911401C2
:1012C000082E000C990B801791072CF4DF91CF9119
:1012D0001F910F9108958881882371F08B819C81E3
:1012E0000E94F215893C910538F0CE0106970E94C4
:1012F0005708CE010E948F080F5F1F4F6096DECF08
:1013000090937A01809379010895E0917901F091A9
:101310007A01309721F00190F081E02D099480E06E
:101320000895E0917901F0917A01309721F00280DF
:10133000F381E02D09940895E0917901F0917A010B
:10134000309721F00480F581E02D099408952091D3
:101350007701309178012817390771F0909378015F
:1013600080937701E0917901F0917A01309721F033
:101370000680F781E02D0994089520917501309140
:1013800076012817390771F09093760180937501E3
:10139000E0917901F0917A01309721F00084F18594
:1013A000E02D0994089508950C94D3090E94DD1549
:1013B0000E9434070C94AE165F926F927F928F92C8
:1013C0009F92AF92BF92CF92DF92EF92FF920F93D4
:1013D0001F93CF93DF93CDB7DEB72A970FB6F8945C
:1013E000DEBF0FBECDBF0E9492079CE7A92E91E001
:1013F000B92E00E010E088248394912C502E802F89
:101400000E944D087C01F501C190D1905F018C15BF
:101410009D05B1F40F5F1F4F0430110579F78FEF71
:1014200089838A831B820E94E6158160782F9D83C1
:101430008C8349815A816B818D810E94950A36C0C7
:101440008091080281FD0E94560880E090E0CE2441
:10145000DF243401082E02C0660C771C0A94E2F7E0
:10146000960126213721232B09F443C08E835F8206
:10147000E620F72081E0EF2809F480E088870E94C9
:10148000E6158160782F9A8789874E815F8168850C
:101490008A850E94950A000F111FF801E458FE4F3B
:1014A0008081918168267926718260820E944E191E
:1014B0000E94850990917B01891709F10E94850995
:1014C00080937B012A960FB6F894DEBF0FBECDBF86
:1014D000DF91CF911F910F91FF90EF90DF90CF9010
:1014E000BF90AF909F908F907F906F905F900C9483
:1014F000CD0401968C30910509F0ABCF8BCF2A96A5
:101500000FB6F894DEBF0FBECDBFDF91CF911F9114
:101510000F91FF90EF90DF90CF90BF90AF909F9092
:101520008F907F906F905F900895CF93DF93CDB7AA
:10153000DEB72B970FB6F894DEBF0FBECDBF4F833B
:10154000588769877A878B87DE01119686E0FD01CF
:1015500011928A95E9F785E0FE01379601900D9288
:101560008A95E1F749815A816B817C818D819E81C9
:101570000E94DD102B960FB6F894DEBF0FBECDBFD4
:10158000DF91CF910895882309F4AFC09CEF980FA5
:10159000913A20F40E9436140C94FB1490E2980FB8
:1015A000983050F4877091E001C0990F8A95EAF75E
:1015B000892F0E94B214F0CF9BE5980F933070F4FE
:1015C000853A31F0863A39F083E890E00C94A70927
:1015D00081E890E0FBCF82E890E0F8CF98E5980FA3
:1015E000953108F082C0883A09F440C0893A09F47C
:1015F00040C08A3A09F440C08B3A09F440C08C3AA2
:1016000009F440C08B3B09F440C08C3B09F440C056
:101610008D3A09F440C0803B09F440C08E3A09F489
:1016200040C08F3A09F440C0813B09F440C0823B7E
:1016300009F440C0833B09F440C0843B09F440C036
:10164000853B09F440C0863B09F440C0873B09F460
:1016500040C0883B09F440C0893B09F440C08A3B44
:1016600009F440C080E090E00C94BD0982EE90E067
:10167000FBCF89EE90E0F8CF8AEE90E0F5CF85EBD6
:1016800090E0F2CF86EB90E0EFCF83EB90E0ECCFF1
:1016900084EB90E0E9CF87EB90E0E6CF8CEC90E034
:1016A000E3CF8DEC90E0E0CF83E891E0DDCF8AE8F6
:1016B00091E0DACF82E991E0D7CF84E991E0D4CF0D
:1016C00081E292E0D1CF83E292E0CECF84E292E059
:1016D000CBCF85E292E0C8CF86E292E0C5CF87E229
:1016E00092E0C2CF8AE292E0BFCF0895882329F129
:1016F0009CEF980F913A20F40E9472140C94FB1402
:1017000090E2980F983050F4877091E001C0990FE3
:101710008A95EAF7892F0E94B814F0CF9BE5980FBD
:10172000933020F480E090E00C94A709885A85312A
:1017300020F480E090E00C94BD090895882321F006
:101740000E94B2140C94FB140895882321F00E9487
:10175000B8140C94FB1408958F929F92AF92BF928D
:10176000DF92EF92FF920F931F93CF93DF937C0151
:10177000D62FC72FFC01058102950F701281111120
:101780000E94D1140E942F14D82E882371F01123A7
:1017900031F180E28D0F883010F182E00E94181440
:1017A0000E942F1491E0D82ED926EC2FE295EF70ED
:1017B0008E2F90E0FC01E152F44F0C942B22F10BA0
:1017C000F10B420C420C810C9F0C1F0C1F0CAA0C3D
:1017D0001F0C450D450DB70D1F0C1F0CC00DD12C56
:1017E000E4CF8C2F807FCF70882311F0C295C07F0B
:1017F0001123A9F0CC2359F080E28D0F883010F02E
:10180000D11109C08C2F0E94B2140E94FB148D2F9D
:101810000E94C30A14C08C2F0E94C314F6CF8D2FD0
:101820000E94760BCC2359F080E28D0F883010F0A7
:10183000D11124C08C2F0E94B8140E94FB14DD200B
:1018400009F4A5C10E940B1480FDA1C1F701128209
:101850000E9405140E948412C7010E94D30D0E94A9
:101860000514DF91CF911F910F91FF90EF90DF90C2
:10187000BF90AF909F908F900C94A5128C2F0E94D8
:10188000C914DBCF8C2F807FCF70803211F0C295CE
:10189000C07FDD2369F0D13021F1112361F10023F4
:1018A00059F0F701858180FFB2CF8F70858304C026
:1018B000112361F0011104C08C2F0E949E0BBFCF39
:1018C0008C2F0130D1F70E94E514B9CF011106C069
:1018D0000E94E8148C2F0E94A50BB1CF0130C1F7F4
:1018E000AECF112321F0063008F0A9CFE5CF0530A7
:1018F00008F0A5CFEFCF002369F38D2F0E94760B60
:101900009ECF8C2F86958695837059F0813009F093
:1019100096CF112389F08D2F9C2F93700E94BD09C3
:101920008ECF112331F08D2F9C2F93700E94A70929
:1019300086CF80E090E0FACF80E090E0EFCF8D2F6F
:10194000112329F00E9457180E94431978CF0E9452
:10195000BF18FACF8C2F837009F048C011116FCFD8
:101960002D2F229526952770220F220F6D2F6F7035
:10197000862E912CA12CB12C022E04C0880C991C0F
:10198000AA1CBB1C0A94D2F7D4FF1EC06FE070E003
:1019900080E090E004C0660F771F881F991F2A958A
:1019A000D2F76095709580959095C695C695C37051
:1019B000C23071F0A0F4682979298A299B29C130A5
:1019C00091F00E942D123BCF60E070E0CB01EDCF93
:1019D000682979298A299B290E94491230CF0E94BF
:1019E0002D12C501B4010E94111229CF1123C9F192
:1019F0008C2F8170882309F422CF2D2F22952695D4
:101A00002770220F220F6D2F6F70862E912CA12C24
:101A1000B12C022E04C0880C991CAA1CBB1C0A9471
:101A2000D2F7D4FF20C06FE070E080E090E004C007
:101A3000660F771F881F991F2A95D2F760957095BA
:101A400080959095C695C695C370C23081F0B0F46C
:101A5000682979298A299B29C130A1F00E9407139E
:101A6000EECE8695C7CF60E070E0CB01EBCF682962
:101A700079298A299B290E942313E1CE0E9407130A
:101A8000C501B4010E94EB12DACE8D2F90E0FC016B
:101A9000E05EF109E531F10508F061C0EE5AF24F60
:101AA0000C942B22670D670D670D670D670D670D91
:101AB000670D670D670D670D670D670D670D670D86
:101AC000670D670D740D820D890D900D9A0DDF70F5
:101AD0008C2F8F71112321F00E9484128D2FEDCE57
:101AE0000E94A5128D2FF7CE112341F0053008F08A
:101AF000A6CE8C2F8F710E94CA12A1CE063008F09C
:101B00009ECEF7CF112339F08C2F8F710E94841253
:101B100096CE1123C9F38C2F8F710E94A5128FCE00
:101B2000112329F08C2F8F710E946F1288CE0E9492
:101B3000651285CE112349F0CF718C2F0E9484123B
:101B400063E08C2F0E940F147ACE81E00E9418145B
:101B5000023008F474CE82E00E94181470CE112373
:101B600019F0002389F253CE0023A9F2C6CE4C2FE0
:101B70004F706D2FC7010E94CB020E948B115FCE68
:101B80004C2F4F706D2FC7010E94CF0458CEDF91AC
:101B9000CF911F910F91FF90EF90DF90BF90AF908A
:101BA0009F908F9008950F931F93CF93DF93EC0135
:101BB000988189812B813C81232B39F08F3F19F447
:101BC00081E09F3F19F080E001C081E080FD13C0FB
:101BD000CE010E949F03882371F0688179818A81F8
:101BE0000E94E2138C010E943F130E940612B8016A
:101BF000CE010E94AC0BDF91CF911F910F91089500
:101C00000E94D1140E94E2140E94A4140E94FB14AA
:101C10000E94F1190E94431980E090E00E94A709F8
:101C200080E090E00C94BD090E94C0140C94000E5A
:101C30000E94D713E92FE295EF704E2F50E0FA0182
:101C40003297EE30F105D8F4E85DF14F0C942B2279
:101C5000360E360E3F0E3F0E410E3F0E3F0E3F0E2C
:101C6000360E360E460E3F0E3F0E460E803F19F0E2
:101C700020F4803E20F481E00895843FE1F380E089
:101C80000895803EC0F3813FD1F7F5CF93FB8827BD
:101C900080F90895CF93DF9300D000D01F92CDB785
:101CA000DEB70F900F900F900F900F90DF91CF91B4
:101CB0000895CF93DF9300D000D000D0CDB7DEB72A
:101CC00026960FB6F894DEBF0FBECDBFDF91CF9141
:101CD00008951F93CF93DF93C091850116E0809103
:101CE0008601C81304C0DF91CF911F910895D0E001
:101CF0001C9FF0011D9FF00D1124E957FE4F4081FC
:101D0000518162817381848195810E94590E21964F
:101D1000C770E5CF4091B7015091B8016091B9010A
:101D20007091BA018091BB019091BC010C94590E45
:101D30001F93CF93DF938091BC0182958F70D1F474
:101D40008091B9018823B1F080918501D0918601FD
:101D5000B091B701C091B8014091BA015091BB0157
:101D6000A1E0BF3F09F0A0E0BA016095709516E0D0
:101D70008D1304C0DF91CF911F9108954115510536
:101D8000D9F1CF3FD9F120E090E020FD3CC0189F71
:101D9000F001199FF00D1124E957FE4F21812C13FA
:101DA00032C020812B132FC0228121112CC023810E
:101DB00034812417350720F1241B350B283C3105CD
:101DC00010F52091BC012F7020612093BC0126E00A
:101DD000289FF001299FF00D1124E457FE4F8081C8
:101DE0008F708061808387EB91E00E94D30DDF913B
:101DF000CF911F910C94690E21E0C6CF2A2FC4CF3A
:101E0000260F371FDBCF01968770B2CFAF92BF92FC
:101E1000CF92DF92EF92FF920F931F93CF93DF93B6
:101E2000CDB7DEB761970FB6F894DEBF0FBECDBF5A
:101E30008C0185E0F801DE011D9601900D928A95D6
:101E4000E1F7D8014C9111965C9111971296EC90A4
:101E50003091B7016091B8018091BA019091BB01B6
:101E6000009739F06F3F19F421E03F3F19F020E06F
:101E700001C021E0B22FB170BB2E20FD90C1F8014E
:101E8000C380D480A090B901AA2009F432C1209166
:101E9000BC01C816D90610F1D601A81BB90BCD019B
:101EA000FF24F394883C9105F0F0F12C207F09F099
:101EB000E9C07C2DD98AC88A6E2D89890E944A0E74
:101EC00087EB91E00E94D30DE7EBF1E086E0DF01C4
:101ED0001D928A95E9F70E948A0E1EC08095909502
:101EE0008C0D9D1DDDCF822F807F09F084C065138E
:101EF00025C0341323C0FE2CE11020C02F702061B8
:101F00002093BC010E948A0E87EB91E00E94D30DC2
:101F10008091BC01F80185838F2D61960FB6F894EE
:101F2000DEBF0FBECDBFDF91CF911F910F91FF900C
:101F3000EF90DF90CF90BF90AF900895CD2839F00B
:101F40005F3F19F481E04F3F19F080E001C081E06C
:101F500080FD24C081E08E25F82FF170FF2E80FFD8
:101F60003FC0809185012091860136E0821318C020
:101F70004D875E878D859E850E94D713292F2295D8
:101F80002F70223008F1243030F59F7009F1D8010C
:101F900015969C91907FE1F4FB2CBECF80E0DCCFC6
:101FA00090E0389FF001399FF00D1124E957FE4F62
:101FB0006181561306C06081641303C06281E6121A
:101FC0000FC001968770D2CF9F7011F0882321F344
:101FD000805E883008F3C8010E94D30DBF2CDCCF8F
:101FE000FE2CEE2009F498CF8091BC018160809393
:101FF000BC01F12C91CF651314C0341312C0E11051
:1020000010C08091BC01F8018583C8010E94D30DE6
:1020100086E0F801A7EBB1E001900D928A95E1F717
:102020005ACF4D875E878D859E850E94180E882326
:1020300009F4BFC0EE2009F4BCC02091BC01822F7E
:1020400082958F7090E0029774F08091B701909123
:10205000B80198878F831986DB86CA862C87CE01C4
:1020600007960E94D30D86E0F801A7EBB1E001903E
:102070000D928A95E1F70E94980E0E948A0EFF2425
:10208000F3944ACF651314C0341312C0E11010C08A
:102090008091BC01F8018583C8010E94D30D86E0C0
:1020A000E7EBF1E0DF011D928A95E9F7FA2C34CFD6
:1020B0004D875E878D859E850E94180E882309F4C2
:1020C00078C0EE2009F475C02091BC01822F829562
:1020D0008F7090E002973CF28091B7019091B80127
:1020E0009A8389831B82DD82CC822E83CE01019666
:1020F000B8CFC816D90680F0F601E81BF90BCF015E
:10210000883C910570F0F12C7C2DD98AC88A6E2DFF
:1021100089890E944A0ED8CE809590958C0D9D1D80
:10212000EFCFFE2CEE2009F444C0651327C0341312
:1021300025C08091BC0180FD18C0982F92959F709A
:10214000292F30E02115310581F0D80115968C93A7
:1021500015972F30310509F458CF9F5F9295907FE6
:102160008F70892B15968C9350CF86E0F801A7EBE2
:10217000B1E001900D928A95E1F7CECE4D875E8752
:102180008D859E850E94180E81116DCF8091BC01B6
:1021900081608093BC01C8010E94D30DBDCEEE20AA
:1021A00041F04D875E878D859E850E94180E8111B6
:1021B0005ACFC8010E94D30D62CF1F93CF93DF93F4
:1021C000CDB7DEB72C970FB6F894DEBF0FBECDBFEC
:1021D0004F83588769877A878B879C87CE010796BC
:1021E0000E94060F882349F19F8188852A853B85B7
:1021F000232B39F08F3F19F481E09F3F19F080E0E5
:1022000001C081E080FD08C04F81588569857A85CD
:102210008B859C850E94590E16E0809185019091D6
:102220008601891348C02C960FB6F894DEBF0FBE06
:10223000CDBFDF91CF911F91089586E0FE013796C3
:10224000DE01119601900D928A95E1F7FF81E885F4
:102250006A857B856115710539F0EF3F19F481E0DE
:10226000FF3F19F080E001C081E080FDD5CF2091D3
:10227000860130E0C9010196877099274091850158
:1022800050E084179507C9F1F983EA837D836C8355
:1022900096E0929FD001939FB00D1124A957BE4F95
:1022A000FE01319601900D929A95E1F78093860197
:1022B0000E94690EB1CF819FC001112489579E4FA2
:1022C0000E94060F882309F4AECFE09185011E9F7E
:1022D000F0011124E957FE4F4081518162817381E1
:1022E000848195810E94590E8091850190E001962C
:1022F000877099278093850190CF0E94140E1092C9
:10230000860110928501E7EBF1E086E0DF011D9286
:102310008A95E9F788CFEF92FF920F931F93CF939F
:10232000DF938C01892B81F0F12CEE24E394E801FA
:102330002196F8018491843770F4843008F062C0EB
:102340008130B1F08230B1F1DF91CF911F910F91C7
:10235000FF90EF900895853709F44FC008F43FC00F
:102360009CE7980F903780F78F770E94760B4CC0D0
:102370000E5F1F4FFE01849190E2980F983060F439
:102380008770FE2D01C0FF0F8A95EAF78F2F0E94FC
:10239000D4140E94FB1402C00E94C30A8F2D88230C
:1023A00009F4C5CFEFE9FFE03197F1F700C0000075
:1023B0008150F5CF0E5F1F4FFE01849190E2980F80
:1023C000983050F48770FE2D01C0FF0F8A95EAF710
:1023D0008F2F0E94DA14DDCF0E94760BDFCF0E5FC5
:1023E0001F4FFE01C491CC23C9F28FE99FE00197F2
:1023F000F1F700C00000C150F6CF0E5F1F4FFE0185
:10240000F490CCCF0E94C30A8E01C8CF0895609388
:10241000DF017093E0018093E1019093E2010C945D
:10242000000E0F931F930091DF011091E0012091A6
:10243000E1013091E201DC01CB01802B912BA22B39
:10244000B32B8093DF019093E001A093E101B0935F
:10245000E2011F910F910C94000E0F931F930091B6
:10246000DF011091E0012091E1013091E201DC01F6
:10247000CB0180239123A223B3238093DF01909388
:10248000E001A093E101B093E2011F910F910C9440
:10249000000E0F931F930091DF011091E001209136
:1024A000E1013091E201DC01CB0180279127A227D5
:1024B000B3278093DF019093E001A093E101B093F3
:1024C000E2011F910F910C94000E1092DB0110920B
:1024D000DC011092DD011092DE010C94000E41E04F
:1024E00050E060E070E004C0440F551F661F771F86
:1024F0008A95D2F74093DB015093DC016093DD01B4
:102500007093DE010C94000E41E050E060E070E05A
:1025100004C0440F551F661F771F8A95D2F780911C
:10252000DB019091DC01A091DD01B091DE01842BF3
:10253000952BA62BB72B8093DB019093DC01A09306
:10254000DD01B093DE010C94000E41E050E060E04C
:1025500070E004C0440F551F661F771F8A95D2F79D
:1025600040955095609570958091DB019091DC01CC
:10257000A091DD01B091DE0184239523A623B7232A
:102580008093DB019093DC01A093DD01B093DE0129
:102590000C94000E41E050E060E070E004C0440F95
:1025A000551F661F771F8A95D2F78091DB019091A6
:1025B000DC01A091DD01B091DE0184279527A627DB
:1025C000B7278093DB019093DC01A093DD01B093EA
:1025D000DE010C94000E0F931F930091DB0110910C
:1025E000DC012091DD013091DE01DC01CB01802B8B
:1025F000912BA22BB32B8093DB019093DC01A09352
:10260000DD01B093DE011F910F910C94000E0F932A
:102610001F930091DB011091DC012091DD013091CD
:10262000DE01DC01CB0180239123A223B32380931D
:10263000DB019093DC01A093DD01B093DE011F91DB
:102640000F910C94000E0F931F930091DB011091DA
:10265000DC012091DD013091DE01DC01CB0180271E
:102660009127A227B3278093DB019093DC01A093ED
:10267000DD01B093DE011F910F910C94000E0895BF
:102680002CE0929F800D1124982F977041E001C09B
:10269000440F9A95EAF786958695869595E0899FE9
:1026A000F0011124E354FE4F80E090E070E050818F
:1026B0009B01082E02C0369527950A94E2F72170F7
:1026C00021952527242325272193019685309105DF
:1026D00071F708952CE0929F800D1124982F977028
:1026E00086958695869525E0829FA001112460E05D
:1026F00070E080E0FA01E60FF71FE354FE4F2081FF
:1027000030E0092E02C0369527950A94E2F7217031
:102710003327062E01C0220F0A94EAF7822B6F5F3F
:102720007F4F6530710531F70895BF92CF92DF92E8
:10273000EF92FF920F931F93CF93DF938C01C09082
:10274000DB01D090DC01E090DD01F090DE018091B2
:10275000DF019091E001A091E101B091E201C82A6E
:10276000D92AEA2AFB2ACFE1D0E0BC2ED701C60144
:102770000C2E04C0B695A795979587950A94D2F725
:1027800080FD0EC0219788F7B12C8B2DDF91CF9162
:102790001F910F91FF90EF90DF90CF90BF90089521
:1027A000B8018C2F0E94EC04019761F3EECFCF9318
:1027B000DF93EC010E949513BE010E94EC04DF91AF
:1027C000CF9108951F93CF93DF93EB0190918401F4
:1027D000992339F0CB010E94D713DF91CF911F913C
:1027E0000895882369F0CB010E949513182F682F54
:1027F000CE010E944013BE01812F0E94EC04EDCF58
:10280000CB010E946A13182FF6CF8091E3018595C2
:102810008595859508958091E3018770089598E0E6
:10282000899F90011124622B6093E3010C94841220
:102830002091E301809582238093E301982F977084
:1028400069F430E0482F082E000C550B241735078B
:1028500029F08595859585950C94A51208959091FC
:10286000E301977081E009F480E0089590912701D9
:102870009923D9F09091390297FF17C0982F969518
:10288000969596959F3131F1E0911501F0911601E1
:10289000E90FF11D877021E030E001C0220F8A9519
:1028A000EAF78181822B818308952091150130916F
:1028B0001601F90132969FEF40E05191851751F0D2
:1028C0009F3F19F4511101C0942F4F5F4E31A9F76A
:1028D0009F3F09F40895290F311D97FD3A95F9019D
:1028E00082830895909127019923E9F0909139020C
:1028F00097FF19C0982F9695969596959F3119F147
:10290000E0911501F0911601E90FF11D282F2770B4
:1029100081E090E001C0880F2A95EAF780959181C7
:102920008923818308952091150130911601F901C1
:102930003296205E3F4F9081891301C010823196FC
:10294000E217F307C1F7089581E090E0E0911501E7
:10295000F0911601E80FF91F10820196803291055F
:10296000A9F7089590910702892B80930702089593
:10297000982F9095809107028923809307020895EC
:1029800010920702089590910602892B8093060207
:102990000895982F909580910602892380930602CE
:1029A000089510920602089590910502892B809354
:1029B00005020895982F90958091050289238093B0
:1029C000050208951092050208958093E401089588
:1029D0001092E40108952091150130911601F9013A
:1029E0003196205E3F4F80E0919191118F5FE21709
:1029F000F307D1F70895E0911501F0911601809148
:102A000007028083E0911501F09116018081909179
:102A10000602892B8083E0911501F09116018081D7
:102A200090910502892B80839091E401992361F0B4
:102A3000E0911501F09116018081892B80830E941D
:102A4000EB1481111092E40180911501909116010F
:102A50000C9491096DEE7EEF80E090E00E9465227B
:102A600060E082E090E00E94532260E083E090E02A
:102A70000E94532260E084E090E00E94532260E0D4
:102A800085E090E00C94532280E090E00E944D227B
:102A900021E08D3E9E4F09F020E0822F089582E0D4
:102AA00090E00C944522682F82E090E00C94532231
:102AB00083E090E00C944522682F83E090E00C9432
:102AC000532284E090E00C944522682F84E090E04B
:102AD0000C94532280913F02843039F11092090204
:102AE00020E488E190E00FB6F894A8958093600008
:102AF0000FBE2093600080E00E94CD0483B7817FE9
:102B0000846083BF83B7816083BF7894889583B7DF
:102B10008E7F83BF0FB6F894A8958091600088617E
:102B200080936000109260000FBE089508950C9489
:102B30009615CF930E9497150E9492070E949615B2
:102B4000C0E08C2F0E944D08892B31F4CF5FC43038
:102B5000C1F780E0CF91089581E0FCCF0E94140E70
:102B60000E9485090C94CD041F920F920FB60F920C
:102B700011248F939F93AF93BF938091090281118A
:102B800013C08091350290913602A0913702B09126
:102B900038024196A11DB11D8093350290933602F3
:102BA000A0933702B0933802BF91AF919F918F915C
:102BB0000F900FBE0F901F90189582E084BD93E098
:102BC00095BD9AEF97BD80936E0008952FB7F89446
:102BD0008091350290913602A0913702B09138026F
:102BE0002FBF0895CF92DF92EF92FF920F931F9322
:102BF0002FB7F89440913502509136026091370218
:102C0000709138022FBF6A017B01EE24FF248C01F2
:102C100020E030E0C016D106E206F30650F0481B73
:102C2000590BCA011F910F91FF90EF90DF90CF9049
:102C3000089541505109F3CF1F920F920FB60F9292
:102C400011248F939F93AF93BF93809135029091FE
:102C50003602A0913702B09138020196A11DB11D34
:102C60008093350290933602A0933702B0933802D6
:102C7000BF91AF919F918F910F900FBE0F901F90BA
:102C800018950E94E81DF8942FEF87EA91E62150ED
:102C900080409040E1F700C0000087E090EBDC014D
:102CA0008093480290934902A0934A02B0934B024A
:102CB0009CE088E10FB6F894A895809360000FBE61
:102CC00090936000FFCFAF92BF92CF92DF92EF92CE
:102CD000FF920F931F93CF93C0E0CC24C394D12CC9
:102CE000E82EF12C8C2F0E944D085C0100E010E0D2
:102CF000C601002E02C0880F991F0A94E2F78A21AC
:102D00009B21892B99F40F5F1F4F0C30110581F720
:102D1000CF5FC43039F780E0CF911F910F91FF90C2
:102D2000EF90DF90CF90BF90AF900895602F7C2FF1
:102D300080E00E94D004E816F90629F781E0ECCF84
:102D4000CF93C82F8CE20E946316882321F08C2F2A
:102D5000CF910C94631680E0CF910895CF930E9499
:102D60004415811102C00E942A15C5E6C15009F020
:102D7000E9C089E20E94A016811118C18AE20E946E
:102D8000A01681110E942A1585E00E94A0168111CB
:102D90000E9441160E944F158093080287E00E940E
:102DA000A016882389F08BE10E94A016882309F4DD
:102DB000D2C08091080281FB992790F921E09227E7
:102DC00090FB81F980930802809108020E945315BC
:102DD0000E94611590E090933A028093390280EE50
:102DE0000E94A016882341F080913902982F909577
:102DF00090FB80F98093390289E30E94A016882312
:102E000059F08091390281FB992790F921E09227AE
:102E100090FB81F98093390282EE0E94A0168823EC
:102E200059F08091390282FB992790F921E092278D
:102E300090FB82F98093390286EE0E94A0168823C7
:102E400059F08091390283FB992790F921E092276C
:102E500090FB83F98093390283EE0E94A0168823A9
:102E600059F08091390284FB992790F921E092274B
:102E700090FB84F98093390285E30E94A016882391
:102E800059F08091390285FB992790F921E092272A
:102E900090FB85F98093390281E30E94A016882374
:102EA00059F08091390286FB992790F921E0922709
:102EB00090FB86F98093390281E10E94A016882355
:102EC00059F08091390287FB992790F921E09227E8
:102ED00090FB87F980933902809139020E94651531
:102EE00087E20E94A016C82F8EE10E94A0168111D1
:102EF000C2608FE10E94A0168111C46080E20E942E
:102F0000A0168111C86081E20E94A0168111C061E3
:102F100082E20E94A0168111C06283E20E94A01684
:102F20008111C06484E20E94A0168823C9F1C068A0
:102F30008C2F0E945C156C2F70E080E090E0CF91A8
:102F40000C9407120E9492078FE39CE90197F1F716
:102F500000C000000BCF8EE00E94A016882351F025
:102F60008091080282FB992790F921E0922790FB3B
:102F700082F928CF80E10E94A01690910802882350
:102F800051F093FB882780F921E0822780FB93F999
:102F90009093080219CF892F809580FB90F9F8CF84
:102FA000C111C6CF0E945815682FC6CFCF91089582
:102FB00080910C0280FF12C060911A0185E0689F29
:102FC000B001112475956795759567956038710501
:102FD000A8F56115710581F581E0089581FF09C0AB
:102FE00060911A0185E0689FB0011124759567957D
:102FF000EDCF82FF07C060911A0185E0689FB001A4
:103000001124E4CF90910D029923A1F06091190150
:10301000961788F720911A0185E0289F90011124C6
:10302000929FA001939F500D112470E0CA010E944D
:103030001722CCCF65E070E0862F08958FE70895C2
:1030400080910C0280FF0CC06091180170E07595B2
:103050006795759567956115710539F581E0089556
:1030600081FF06C06091180170E075956795F3CFF8
:1030700082FF08C06091180170E06038710558F354
:103080008FE7089580910D02882369F06091170100
:10309000861780F790911801899FC001112470E074
:1030A0000E941722EACF61E070E0862F0895803FEA
:1030B00031F40E94D8178195809310020895813FC2
:1030C00019F40E94D817F8CF823F31F40E94D81724
:1030D000819580930F020895833F19F40E94D817B9
:1030E000F8CF893F29F40E94201880931102089597
:1030F0008A3F21F40E9420188195F7CF8B3F31F44D
:103100000E94201881958093120208958C3F19F433
:103110000E942018F8CF843F31F480910E02816024
:1031200080930E020895853F21F480910E02826003
:10313000F7CF863F21F480910E028460F1CF873F64
:1031400021F480910E028860EBCF883F21F48091BA
:103150000E028061E5CF8D3F31F480910C028160D9
:1031600080930C0208958E3F21F480910C028260BE
:10317000F7CF8F3FB9F780910C028460F1CF803F89
:10318000C1F48091100287FD1092100280910F020D
:1031900081110EC08091100281110AC0809111022C
:1031A000811106C080911202811102C010920D029D
:1031B0000895813F29F48091100218162CF3E6CF70
:1031C00090910F02823F29F497FFE0CF10920F02F7
:1031D000DDCF833F19F41916CCF3D8CF893F39F4EA
:1031E00080911102181694F610921102CFCF8A3FE7
:1031F00029F48091110287FFC9CFF6CF8B3F39F4B4
:103200008091120287FFC2CF10921202BFCF8C3F73
:1032100029F4809112021816BCF3B8CF843F31F420
:1032200080910E028E7F80930E02B0CF853F21F4F5
:1032300080910E028D7FF7CF863F21F480910E02A0
:103240008B7FF1CF873F21F480910E02877FEBCFF8
:10325000883F21F480910E028F7EE5CF8D3F31F4BF
:1032600080910C028E7F80930C0290CF8E3F21F4D0
:1032700080910C028D7FF7CF8F3F09F087CF80912F
:103280000C028B7FF0CF8EE092E00E949C090E949E
:10329000E61590930B0280930A0208951F93CF9333
:1032A000DF9380910A0290910B020E94F215AC010B
:1032B00090910D029923D1F020911B0130E042172B
:1032C000530780F080910F02C0911002D09111023B
:1032D00010911202811111C0C1117FC0D1117DC0A6
:1032E00011117BC0DF91CF911F91089520911C0196
:1032F0008AE0289F90011124E2CF9F3F19F09F5F41
:1033000090930D02181624F40E94D81780930F0290
:1033100080910F0287FF05C00E94D8178195809386
:103320000F021C1624F40E94D8178093100280917B
:10333000100287FF05C00E94D81781958093100264
:1033400060910F02662331F1C0911002CC2311F17C
:10335000062E000C770B880B990B0E941E2123E38D
:1033600033E343E35FE30E9482210E94E6206093FF
:103370000F026C2FCC0F770B880B990B0E941E212C
:1033800023E333E343E35FE30E9482210E94E620CC
:10339000609310021D1624F40E94201880931102DD
:1033A0008091110287FF05C00E94201881958093AB
:1033B0001102111624F40E942018809312028091A9
:1033C000120287FF05C00E94201881958093120287
:1033D000DF91CF911F910C9443199F3F09F08FCF3C
:1033E000A0CFEEE0F2E085E0DF011D928A95E9F7DB
:1033F00010920D0210920C020895809133020895EC
:10340000CF93DF9300D01F92CDB7DEB79C018091A0
:103410003F02843019F593E099833B832A8390938C
:10342000E9008FEF9091E800815095FD06C095ED81
:103430009A95F1F700008111F5CF8091E80085FFA2
:103440000DC040E050E063E070E0CE0101960E94C4
:103450005B1C8091E8008E778093E8000F900F90BE
:103460000F90DF91CF910895CF93DF9300D01F92FB
:10347000CDB7DEB720913F02243031F522E0298319
:10348000805891099B838A8383E08093E9008FEFC2
:103490009091E800815095FD06C095ED9A95F1F761
:1034A00000008111F5CF8091E80085FF0DC040E05C
:1034B00050E063E070E0CE0101960E945B1C8091B9
:1034C000E8008E778093E8000F900F900F90DF91C7
:1034D000CF9108959C0180913F028430F9F482E0FD
:1034E0008093E9009FEF8091E800915085FD06C030
:1034F00085ED8A95F1F700009111F5CF8091E800F4
:1035000085FF0CC040E050E065E070E0C9010E941A
:103510005B1C8091E8008E778093E8000895CF933C
:10352000DF93EC0180913F02843071F59091270187
:10353000992369F19091390297FF29C08093E9009E
:103540008FEF9091E800815095FD06C095E19A9526
:10355000F1F700008111F5CF8091E80085FF14C0DC
:1035600040E050E060E270E0CE010E945B1C809180
:10357000E8008E778093E80080E2FE01A3E1B2E0EC
:1035800001900D928A95E1F7DF91CF91089581E046
:103590008093E9008FEF9091E800815095FD06C07F
:1035A00095ED9A95F1F700008111F5CF8091E80033
:1035B00085FFEACF40E050E068E070E0D5CF809131
:1035C0003E02811109C00E94E81D0E94451E8091A3
:1035D000E20084608093E200089510923E02089514
:1035E000089508950C94AE1542E061EC81E00E94CC
:1035F000651D42E061EC82E00E94651D42E061ECE5
:1036000083E00E94651D42E261EC84E00C94651D3C
:1036100080914102833009F455C030F4813071F15A
:10362000823009F491C008958A3009F47DC08B304E
:1036300009F463C0893009F044C0809140028132AE
:1036400009F03FC08091440290914502009711F02B
:103650000397B9F58091E800877F8093E800809117
:10366000E80082FF2AC08091F100809333028091AC
:10367000E8008B778093E8000C949A1D80914002BB
:10368000813AF9F48091E800877F8093E800809187
:10369000440290914502892B61F460E283E192E05B
:1036A00070E00E94AA1C8091E8008B778093E8006C
:1036B000089560E080E090E0F3CF80913F028111B7
:1036C000CECF089580914002813AD9F7809144028B
:1036D00090914502892BA9F78091E800877F80931C
:1036E000E8008091E80080FFFCCF80912701809363
:1036F000F1008091E8008E77BDCF80914002813249
:1037000001F78091440290914502892BD1F6809176
:10371000E800877F8093E8000E949A1D8091420212
:10372000809327010C94140E80914002813249F657
:103730008091E800877F8093E8000E949A1D809125
:10374000430280933402089580914002813A09F047
:10375000B8CF8091E800877F8093E8008091E800EF
:1037600080FFFCCF80913402C2CF84B7877F84BFB3
:103770000FB6F894A89580916000886180936000EE
:10378000109260000FBE80E880936100109261008B
:103790000E94D4090E94E81D0E94451E8091E2000B
:1037A00084608093E20078940E94CA200E94D60927
:1037B0008DE191E00E94800980913F02853019F0EF
:1037C0000E94DC09F9CF0E946A1580913D0288238E
:1037D00099F30E949915882379F30E94451CECCF38
:1037E000292F33272330310579F158F42130310561
:1037F000F1F02230310519F180E090E020E030E076
:103800001AC02132310599F122323105A9F764300D
:1038100098F770E0FB01EE0FFF1FE45CFE4F208184
:103820003181685C7E4FFB01808190E004C082E1C1
:1038300090E025EF33E0FA013183208308958DE68F
:1038400090E028E833E0F7CF99278130910561F0C7
:1038500028F0029789F6E4E5F3E002C0E4E8F3E03B
:10386000849190E09F01E7CFEAE6F3E0F9CF64307E
:1038700008F0C2CFE62FF0E0EE0FFF1FEC5BFE4F2B
:103880002081318189E090E0D6CF80E189BD82E15D
:1038900089BD09B400FEFDCF8091D8008F7D809353
:1038A000D8008091E00082608093E0008091E00089
:1038B00081FDFCCF0895AF92BF92DF92EF92FF920D
:1038C0000F931F93CF93DF93EC018B017A010E943A
:1038D000B91DD82E811124C0E114F10439F0F7018B
:1038E00080819181081B190BC80FD91FA12CB12C05
:1038F00001151105A9F08091E80085FD22C0809195
:10390000E8008E778093E800E114F104A1F0F7015C
:1039100080819181A80EB91EB182A08285E0D82E47
:103920008D2DDF91CF911F910F91FF90EF90DF9040
:10393000BF90AF9008950E94B91D8823C9F2D82E78
:10394000EFCF89918093F10001501109FFEFAF1A79
:10395000BF0ACECF20914602309147022617370783
:10396000A8F06115710529F42091E8002E772093C5
:10397000E800FC0120E06115710551F4211108C037
:103980008091E80082FF33C080E00895B901F1CF53
:1039900080913F028823B9F18530B9F18091E80028
:1039A00083FD2FC08091E80082FDEACF8091E8007E
:1039B00080FFE1CF2091F3008091F20090E0922B04
:1039C0006115710519F08830910550F021E00897D4
:1039D00009F020E08091E8008E778093E800CBCF5B
:1039E00021912093F100615071090196E9CF8091F6
:1039F0003F02882341F0853041F08091E80083FF49
:103A0000BFCF81E0089582E0089583E0089520917A
:103A100046023091470226173707A8F06115710555
:103A200029F42091E8002E772093E800FC0120E0A3
:103A30006115710551F4211108C08091E80082FFE1
:103A400034C080E00895B901F1CF80913F0288230E
:103A5000C1F18530C1F18091E80083FD30C08091D3
:103A6000E80082FDEACF8091E80080FFE1CF20915D
:103A7000F3008091F20090E0922B6115710519F02E
:103A80008830910550F021E0089709F020E08091FE
:103A9000E8008E778093E800CBCF24912093F1004B
:103AA0003196615071090196E8CF80913F028823D9
:103AB00041F0853041F08091E80083FFBECF81E086
:103AC000089582E0089583E00895982F973028F0B4
:103AD0008F708093E90081E008959093E900981732
:103AE00051F07091EC002091ED005091F00021FD1B
:103AF00006C09F5FEBCF242F762F50E0F8CF309198
:103B0000EB003E7F3093EB003091ED003D7F309332
:103B1000ED003091EB0031603093EB007093EC00DE
:103B20002093ED005093F0002091EE0027FDE1CFAF
:103B300080E008958091400287FF13C08091E800E3
:103B400082FF06C08091E8008B778093E80004C074
:103B500080913F028111F2CF089580913F02882326
:103B6000D9F38091E80080FFF8CF8091E8008E774C
:103B7000ECCF2091E4003091E50085E69091EC00D7
:103B800090FD20C09091E80092FD20C090913F02EE
:103B9000992391F0953091F09091EB0095FD10C034
:103BA0004091E4005091E5004217530739F38150EA
:103BB0009A0121F784E0089582E0089583E0089552
:103BC00081E008959091E80090FFE0CF80E00895B3
:103BD0000E94561E0E945E1EE0EEF0E08081816031
:103BE0008083E8EDF0E080818F77808319BCA7EDBA
:103BF000B0E08C918E7F8C9380818F7E8083109239
:103C00003E0208950F931F93CF93DF930E94561E99
:103C10000E945E1EC8EDD0E088818F7788838881FE
:103C20008068888388818F7D888319BC10923F02C9
:103C300010923B0210923D0210923C0200EE10E006
:103C4000F80180818B7F808388818160888342E056
:103C500060E080E00E94651DE1EEF0E080818E7FF3
:103C60008083E2EEF0E080818160808380818860E3
:103C70008083F80180818E7F808388818061888342
:103C8000DF91CF911F910F910895E8EDF0E08081D1
:103C90008F7E8083E7EDF0E080818160808384E027
:103CA00082BF81E080933E020C94021EE8EDF0E0BA
:103CB00080818E7F80831092E20008951092DA0056
:103CC0001092E10008951F920F920FB60F921124E7
:103CD0002F933F934F935F936F937F938F939F9314
:103CE000AF93BF93EF93FF938091E10082FF0BC0EE
:103CF0008091E20082FF07C08091E1008B7F80937A
:103D0000E1000E94C9208091DA0080FF19C08091F3
:103D1000D80080FF15C08091DA008E7F8093DA0092
:103D20008091D90080FF94C080E189BD82E189BD86
:103D300009B400FEFDCF81E080933F020E94DF1AAC
:103D40008091E10080FF19C08091E20080FF15C0E2
:103D50008091E2008E7F8093E2008091E20080619A
:103D60008093E2008091D80080628093D80019BCD3
:103D700085E080933F020E94F11A8091E10084FF68
:103D800029C08091E20084FF25C080E189BD82E1E5
:103D900089BD09B400FEFDCF8091D8008F7D80934E
:103DA000D8008091E1008F7E8093E1008091E20055
:103DB0008F7E8093E2008091E20081608093E20038
:103DC00080913B02882309F449C084E080933F023C
:103DD0000E94F21A8091E10083FF29C08091E200E5
:103DE00083FF25C08091E100877F8093E10082E01E
:103DF00080933F0210923B028091E1008E7F80937E
:103E0000E1008091E2008E7F8093E2008091E200E9
:103E100080618093E20042E060E080E00E94651DE6
:103E20008091F00088608093F0000E94F01AFF916A
:103E3000EF91BF91AF919F918F917F916F915F9122
:103E40004F913F912F910F900FBE0F901F9018959B
:103E500019BC10923F020E94ED1A72CF8091E300CC
:103E600087FD02C081E0B2CF83E0B0CF1F920F92F6
:103E70000FB60F9211242F933F934F935F936F933D
:103E80007F938F939F93AF93BF93CF93EF93FF93C2
:103E9000C091E900CF708091EC001092E900809110
:103EA000F000877F8093F00078940E94721F109238
:103EB000E9008091F00088608093F000C093E900F1
:103EC000FF91EF91CF91BF91AF919F918F917F9192
:103ED0006F915F914F913F912F910F900FBE0F9077
:103EE0001F9018951F93CF93DF93CDB7DEB7AA9796
:103EF0000FB6F894DEBF0FBECDBFE0E4F2E08091D4
:103F0000F100819322E0E834F207C9F70E94081B10
:103F10008091E80083FF44C080914002909141026B
:103F2000492F50E04A30510508F03AC0FA01E556F1
:103F3000F04E0C942B22A51FC91FD01FC91FD01FE4
:103F400024204720D01F9C20A920803879F0823877
:103F500039F5809144028F708093E9008091EB00E5
:103F600085FB882780F91092E90006C080913C0209
:103F700090913D02911182609091E800977F90931B
:103F8000E8008093F1001092F1008091E8008E77B4
:103F90002DC0282F2D7F21F48823D1F0823059F1B4
:103FA0008091E80083FF0AC08091E800877F8093BA
:103FB000E8008091EB0080628093EB00AA960FB638
:103FC000F894DEBF0FBECDBFDF91CF911F91089552
:103FD00080914202813021F7933009F080E0809394
:103FE0003D021092E9008091E800877F8093E8000D
:103FF0000E949A1DD5CF809142028111F2CF80910B
:1040000044028F7069F28093E9002091EB0020FF59
:10401000E8CF933031F48091EB0080628093EB0025
:10402000E0CF9091EB0090619093EB0021E030E0C5
:1040300001C0220F8A95EAF72093EA001092EA0065
:104040008091EB008860EACF8111AACF10914202E3
:104050001F778091E3008078812B8093E30080912B
:10406000E800877F8093E8000E949A1D8091E80015
:1040700080FFFCCF8091E30080688093E300111102
:1040800004C082E080933F028BCF83E0FBCF805857
:10409000823008F085CF80914202909143028C3D9E
:1040A00023E09207A1F583E08A838AE289834FB7F0
:1040B000F894DE01139620E03EE051E2E32FF0E0B9
:1040C00050935700E49120FF03C0E295EF703F5FEB
:1040D000EF708E2F90E0EA30C0F0C7968D939D93DD
:1040E0002F5F243159F74FBF8091E800877F80937D
:1040F000E8006AE270E0CE0101960E94AA1C80915D
:10410000E8008B778093E8004BCFC096E7CFAE01F5
:104110004F5F5F4F609144020E94F01BBC01892BEE
:1041200009F43ECF9091E800977F9093E800898151
:104130009A810E94071DE3CF803809F031CF80912A
:10414000E800877F8093E80080913B028093F10034
:104150001CCF811125CF90914202923008F020CFE0
:104160008091E800877F8093E80090933B020E9453
:104170009A1D80913B02882311F084E005C0809154
:10418000E30087FDFACF81E080933F020E94F41A9A
:1041900007CF0895CF9380913F02882399F0C09173
:1041A000E900CF708091EC0080FD0EC080E0C82B4C
:1041B0001092E9008091E80083FD0E94721FCF7089
:1041C000C093E900CF91089580E8F1CF0E94ED20DF
:1041D0006894B1110C947C2108950E94612188F0AB
:1041E0009F5798F0B92F9927B751B0F0E1F0660FBB
:1041F000771F881F991F1AF0BA95C9F714C0B130FC
:1042000091F00E947B21B1E008950C947B21672FEF
:10421000782F8827B85F39F0B93FCCF3869577952A
:104220006795B395D9F73EF4909580957095619513
:104230007F4F8F4F9F4F0895E89409C097FB3EF43E
:1042400090958095709561957F4F8F4F9F4F9923E3
:10425000A9F0F92F96E9BB279395F6958795779561
:104260006795B795F111F8CFFAF4BB0F11F460FF21
:104270001BC06F5F7F4F8F4F9F4F16C0882311F079
:1042800096E911C0772321F09EE8872F762F05C08D
:10429000662371F096E8862F70E060E02AF09A9528
:1042A000660F771F881FDAF7880F9695879597F91D
:1042B000089557FD9058440F551F59F05F3F71F016
:1042C0004795880F97FB991F61F09F3F79F087957D
:1042D0000895121613061406551FF2CF4695F1DF06
:1042E00008C0161617061806991FF1CF8695710596
:1042F000610508940895E894BB2766277727CB01CA
:1043000097F908950E9495210C9406220E94F821A5
:1043100038F00E94FF2120F0952311F00C94EF213A
:104320000C94F52111240C947C210E94592170F3E6
:10433000959FC1F3950F50E0551F629FF001729F4A
:10434000BB27F00DB11D639FAA27F00DB11DAA1F59
:10435000649F6627B00DA11D661F829F2227B00DA6
:10436000A11D621F739FB00DA11D621F839FA00D31
:10437000611D221F749F3327A00D611D231F849F81
:10438000600D211D822F762F6A2F11249F575040D8
:104390009AF0F1F088234AF0EE0FFF1FBB1F661F53
:1043A000771F881F91505040A9F79E3F510580F01C
:1043B0000C94EF210C947C215F3FE4F3983ED4F3FE
:1043C000869577956795B795F795E7959F5FC1F7C0
:1043D000FE2B880F911D9695879597F9089597F96B
:1043E0009F6780E870E060E008959FEF80EC08959B
:1043F00000240A94161617061806090608950024C4
:104400000A9412161306140605060895092E03943D
:10441000000C11F4882352F0BB0F40F4BF2B11F4B1
:1044200060FF04C06F5F7F4F8F4F9F4F089597FBD2
:10443000072E16F4009407D077FD09D00E94312290
:1044400007FC05D03EF4909581959F4F0895709597
:1044500061957F4F0895EE0FFF1F0590F491E02DB9
:104460000994AA1BBB1B51E107C0AA1FBB1FA617BB
:10447000B70710F0A61BB70B881F991F5A95A9F70D
:1044800080959095BC01CD010895F999FECF92BD1C
:1044900081BDF89A992780B50895A8E1B0E042E07F
:1044A00050E00C946D22262FF999FECF92BD81BD6C
:1044B000F89A019700B4021639F01FBA20BD0FB662
:1044C000F894FA9AF99A0FBE08950196272F0E9440
:1044D00054220C945322DC01CB01FC01F999FECF4C
:1044E00006C0F2BDE1BDF89A319600B40D9241507C
:0A44F0005040B8F70895F894FFCF8C
:1044FA0000006F087F0800000000000000001001A3
:10450A0000000070FFE5012808140A321EFD198F09
:10451A001A6A1A341A001A01929395963436F6F5E5
:10452A00F4F1F0339735F794404D3639C3047604E5
:0C453A00400407049A03B303CC03E5031C
:00000001FF
