:100000000C94A0020C94E7020C94E7020C94E70213
:100010000C94E7020C94E7020C94E7020C94E702BC
:100020000C94E7020C94E7020C94F61B0C94C91C88
:100030000C94A3140C94E7020C94E7020C94E702CE
:100040000C94E7020C94E7020C94E7020C94E7028C
:100050000C94E7020C940B150C94E7020C94E70245
:100060000C94E7020C94E7020C94E7020C94E7026C
:100070000C94E7020C94E7020C94E7020C94E7025C
:100080000C94E7020C94E7020C94E7020C94E7024C
:100090000C94E7020C94E7020C94E7020C94E7023C
:1000A0000C94E7020C94E7020C94E7020001E001D3
:1000B00028022802E0000001E30128022802E300F0
:1000C0000001E0012E022E02E0000001E3012E02F9
:1000D0002E02E3000001E0012D022D02E0000001EC
:1000E000E3012D022D02E3000001E0012B022B02AF
:1000F000E0000001E301E50130023002E502E30027
:100100000001E001E5012B022B02E502E000000105
:10011000E301E5012F022F02E502E3000001E20105
:100120004F024F02E2000001E30130023002E3001F
:100130000001E20150025002E2000001E3012F023F
:100140002F02E30028A2F0A134A3F1A533A435A522
:10015000C50014001A000800150017001C00180044
:100160000C00120013002A002B00040016000700E8
:1001700009000A000B000D000E000F00C400C200B1
:10018000E1001D001B000600190005001100100011
:10019000360037003800E500E000E200E3002C0004
:1001A000000000000000C000C100E7000000E40003
:1001B00039001E001F00200021002200230024001F
:1001C0002500260027004C0029003A003B003C0097
:1001D0003D003E003F002D002E002F00300031007A
:1001E000010040004100420043004400450032004D
:1001F00064004B004E0001000100010001000100FD
:1002000000000000000001000100010000000100EA
:100210000100023003300100010001000100010073
:100220000100043005304C0029000100FB00F900FA
:10023000FA00FC005000510052004F00010006304F
:100240000100003001300100010001000100010047
:100250000100010001000100010001000100010096
:100260000000000000000100C300010000000100C8
:1002700001004700480001000100010001000100E9
:1002800001000100010001000100A90001000100BE
:10029000010001000100BC00AE00BB000100010034
:1002A0000100AA00327001000100010001000100FC
:1002B0000100010001000100010001000100010036
:1002C000000000000000010001000100000001002A
:1002D000010001000100010001000100F400F5002F
:1002E000010001000100010001000100FB00F90014
:1002F000FA00FC00F200F100F000F3000100010040
:1003000001000100010001000100010001000100E5
:1003100001000100010001000100010001000100D5
:1003200000000000000001000100010000000100C9
:100330000100007001000100010001000100010046
:1003400001000100010001000100010001000100A5
:100350000100010001000100010001000100010095
:100360000100010001000100010001000100010085
:100370000100010001000100010001000100010075
:1003800000000000000001000100137000000A706E
:100390001403540068006500560061006E002000E0
:1003A00034003400000018034500760061006E0040
:1003B00020005300610069006C00650072000000BD
:1003C0000403090409026D00040100A0FA090400F5
:1003D0000001030101000921110100012240000771
:1003E00005810308000A0904010001030102000954
:1003F0002111010001224D000705820308000A09AE
:10040000040200010300000009211101000122364D
:10041000000705830308000A090403000103000024
:100420000009211101000122390007058403200081
:10043000011201100100000008AEFE448802000114
:1004400002000105010906A101050719E029E715C8
:1004500000250195087501810205081901290595F6
:100460000575019102950175039101050719002990
:10047000F71500250195F875018102C00501098075
:10048000A10185021601002603001A81002A8300BB
:10049000751095018100C0050C0901A101850316A5
:1004A0000100269C021A01002A9C02751095018108
:1004B00000C005010902A1010901A10005091901F6
:1004C0002905150025019505750181029501750322
:1004D00081010501093009311581257F95027508D3
:1004E000810609381581257F950175088106050C5F
:1004F0000A38021581257F950175088106C0C0055F
:10050000010906A101050719E029E7150025019554
:1005100008750181029501750881010508190129F5
:10052000059505750191029501750391010507195E
:100530000029FF150026FF00950675088100C00000
:1005400011241FBECFEFDAE0DEBFCDBF04B603FE3D
:1005500027C08091320290913302A0913402B09171
:1005600035028730904BA740B04BD1F41092320245
:1005700010923302109234021092350214BE84B7E6
:10058000877F84BF0FB6F894A8958091600088613A
:1005900080936000109260000FBEE0E0F8E30995E0
:1005A00011E0A0E0B1E0E0E2F0E402C005900D92BD
:1005B000A833B107D9F722E0A8E3B1E001C01D924A
:1005C000A233B207E1F70E9448190C940E200C9454
:1005D0000000CF93DF93D62FFC01C2810E943D140F
:1005E000811102C00E942314209123022C708D2FB0
:1005F00090E02C3009F052C08730910570F5FC0175
:10060000EC5FFC4F0C94BE1F120362036C0371037A
:1006100080038A031C03C11114C08AE391E0DF91B7
:10062000CF910895C11110C080E391E0F8CFC111BE
:100630000EC086EB90E0F3CFC1110CC08CEA90E0C5
:10064000EECF8BE391E0EBCF81E391E0E8CF87EB56
:1006500090E0E5CF8DEA90E0E2CF80E090E0DFCF60
:1006600087E291E0DCCF8DE191E0D9CF8FE091E09E
:10067000D6CF81E091E0D3CF89EE90E0D0CF83EF69
:1006800090E0CDCF8FED90E0CACF85ED90E0C7CF61
:100690008BEC90E0C4CF81EC90E0C1CF8730910526
:1006A000E0F6FC01EA5AFC4F0C94BE1F0B035D03FD
:1006B000670376037B0385031703C111D1CF86E25D
:1006C00091E0ADCFC111CFCF8CE191E0A8CFC111A6
:1006D000CDCF8EE091E0A3CFC111CBCF80E091E0F0
:1006E0009ECFC111C9CF88EE90E099CFC111C7CF7D
:1006F00082EF90E094CFC111C5CF8EED90E08FCF07
:10070000C111C3CF84ED90E08ACFC111C1CF8AEC73
:1007100090E085CFC111BFCF80EC90E080CF0895ED
:1007200008959C01FB0182818823C9F02233304760
:10073000B9F4229A809138019091390121E030E09A
:10074000009711F020E030E0309339012093380118
:10075000892B19F42A9A80E008952A98FCCF81E029
:10076000089581FF03C0229A2A9808952298FCCF09
:1007700081E008950C9491030E940D0D2FEF84E306
:100780009CE0215080409040E1F700C000000C94B4
:100790003015FF920F931F93CF93DF938C01FC01D1
:1007A000C081D18180916E01811127C0828188230F
:1007B000F9F0CE010E948E12F82E682FCE010E9411
:1007C0003912BE018F2D0E94F204EC01B8010E9483
:1007D000BA03882331F0B801CE010E9403078111CA
:1007E000C2C080E0DF91CF911F910F91FF900895DB
:1007F000CE010E946312F82EE4CFCE010E948E1229
:10080000BE01E1CFF8018281882359F30E94BC0325
:10081000E8CFF8018281882321F38091F201816081
:100820008093F201DECFF8018281882309F4B2C0FF
:100830000E943D14811102C00E9423140E94501492
:1008400090E09093240280932302FE01E350F0474E
:10085000E231F105C0F4EF5CFB4F809123020C9470
:10086000BE1F4F0451045C0453045504570459043B
:100870005B045E04600462046D046404660468043E
:100880006A046C046F0480912302816080932302C8
:10089000809123020E9454140E940D0DA2CF826009
:1008A000F5CF8460F3CF8061F1CF8062EFCF8064B9
:1008B000EDCF8068EBCF84608860E8CF8E7FE6CF95
:1008C0008D7FE4CF8B7FE2CF8F7EE0CF8F7DDECF39
:1008D0008F7BDCCF8F77DACF8B7F877FD7CF87FB7C
:1008E000992790F921E0922790FB87F9CFCFF80163
:1008F0008281882361F010923C010E94D51490936C
:100900003B0180933A0182E00E94970A6ACF80916E
:100910003C0181110FC080913A0190913B010E94EE
:10092000E114883C910530F486E20E94BC0986E21D
:100930000E946F0A82E00E949E0A53CF80913D017F
:1009400081110FC080913A0190913B010E94E11406
:10095000883C910530F487E20E94BC0987E20E943E
:100960006F0A80E2E8CFC531F0E7DF07D8F4C23084
:1009700080E7D80708F057CFC115E0E7DE0709F494
:1009800041CFC130D04709F444CF81E080933C018E
:1009900080933D01C801DF91CF911F910F91FF908E
:1009A0000C94B803CC3380E7D80709F4A0CFCD333B
:1009B000D04759F7F8018281882309F4BFCF1092FC
:1009C0003D010E94D51490933B0180933A0180E24F
:1009D0009BCF0C9452070C9454070C94B1030C94C5
:1009E000ED040895972F70E02CE0929F600D711D2B
:1009F0001124FB0190E3899FE00DF11D1124EE0FFE
:100A0000FF1FE05BFE4F859194910895FC01EE0F6E
:100A1000FF1FEC5BFE4F8591949108950E94F204B4
:100A20000E948106811520E4920708F08DC081158F
:100A300040E3940708F0E7C0803E910508F071C0DC
:100A4000803C910508F0CBC0883A910580F4853A46
:100A5000910508F0C9C08130910509F46EC020F0FD
:100A60008430910508F069C080E090E008958D3BE6
:100A70009105D0F7883A910509F404C1893A9105A6
:100A800009F403C18A3A910509F402C18B3A910530
:100A900009F401C18C3A910509F400C18B3B910521
:100AA00009F4FFC08C3B910509F4FEC08D3A910515
:100AB00009F4FDC0803B910509F4FCC08E3A910514
:100AC00009F4FBC08F3A910509F4FAC0813B910506
:100AD00009F4F9C0823B910509F4F8C0833B910504
:100AE00009F4F7C0843B910509F4F6C0853B9105F4
:100AF00009F4F5C0863B910509F4F4C0873B9105E4
:100B000009F4F3C0883B910509F4F2C0893B9105D3
:100B100009F4F1C08A3B910509F4F0C080E094E447
:100B200008958F3F910509F048F4803F910508F042
:100B300066C0883E910508F097CF0895811520E2A0
:100B4000920708F05EC00895811543E5940760F5AB
:100B5000811522E5920708F061C0811541E59407EF
:100B600008F057C0811520E5920708F44FC09C019A
:100B700054E0369527955A95E1F7922F9370482FB8
:100B8000437021E030E002C0220F331F4A95E2F7A4
:100B90003C68392B86958695837040E2849FC0011E
:100BA0001124822B932B0895811545E5940750F469
:100BB000811524E5920708F445C0982F8827846F93
:100BC000906A0895811546E5940708F44FC09C018A
:100BD00030562115304108F047CF9F704BC0805CE4
:100BE00091090E9406050895853A910509F444C0CB
:100BF000863A910509F043C082E890E40895906533
:100C000008959F70EECF9927906C08959F70906A19
:100C10000895982F8827816F906A0895AC014370DA
:100C2000552721E030E002C0220F331F4A95E2F73A
:100C30008695869540E2849FC0011124822B932BD8
:100C40009C680895AC014370552721E030E002C054
:100C5000220F331F4A95E2F78695869540E2849FDE
:100C6000C0011124822B932B9A680895982F88270E
:100C700088279F719062089581E890E4089583E841
:100C800090E4089582EE94E4089589EE94E4089542
:100C90008AEE94E4089585EB94E4089586EB94E459
:100CA000089583EB94E4089584EB94E4089587EB2E
:100CB00094E408958CEC94E408958DEC94E4089504
:100CC00083E895E408958AE895E4089582E995E437
:100CD000089584E995E4089581E296E4089583E215
:100CE00096E4089584E296E4089585E296E40895F2
:100CF00086E296E4089587E296E408958AE296E40F
:100D00001CCF8238910549F1B0F48133910509F483
:100D10005AC048F48932910509F450C08A329105CD
:100D200009F456C008958533910509F442C089330A
:100D3000910599F00895833E910521F138F4803EA4
:100D4000910581F0823E9105A1F00895863E9105BE
:100D500001F1873E910531F108952091230223701E
:100D6000E1F508952091230220FF12C089E390E06D
:100D700008952091230222FF0BC024FF31C080E0A0
:100D800090E008952091230222FD2DC024FDF7CF8D
:100D900008952091230223FFFBCF24FDF0CF87EE9F
:100DA00090E008952091230223FFF0CF86EE90E09B
:100DB00008952091230225FD19C008952091230252
:100DC00025FD17C008952091230226FD15C0089522
:100DD0002091230226FD13C0089580EE90E008952F
:100DE00083EE90E0089582EE90E0089589E290E02D
:100DF000089585E390E008958AE290E0089581E304
:100E000090E0C6CF08950F931F93CF938C01FB0101
:100E10008281811106C0C1E08C2FCF911F910F916B
:100E20000895C0914B01C11125C00531104799F7B4
:100E30000E94020781E080934B010E94D514909399
:100E40004A018093490110923E0110924001109294
:100E50003F01109242011092410110924401109200
:100E600043011092460110924501109248011092E0
:100E70004701D2CF8091490190914A010E94E1142B
:100E8000883C910540F680913E01E82FF0E0EE0F9E
:100E9000FF1FE15CFE4F118300838F5F80933E0153
:100EA000C0E0BACF0C948F030C94900385B7806890
:100EB00085BF85B7806885BFAFE1B1E061E070E0D4
:100EC0008D91E82FE295EF70F0E041A18F709B01CA
:100ED00001C0220F8A95EAF7922F9095942391A34F
:100EE00082A1822B82A381E0A332B80749F7A3E154
:100EF000B1E061E070E08D91E82FE295EF70F0E0F5
:100F000041A18F709B0101C0220F8A95EAF7922FB1
:100F10009095942391A382A1822B82A381E0AF318B
:100F2000B80749F7109255011092540110924D01E3
:100F300010924C01109257011092560110924F01DD
:100F400010924E01109259011092580110925101C5
:100F50001092500110925B0110925A0110925301AD
:100F6000109252010C94E9046F927F929F92AF927B
:100F7000BF92CF92DF92EF92FF920F931F93CF9386
:100F8000DF93CCE4D1E09FE1E92E91E0F92E01E07E
:100F900010E0BB24B394C880D98019821882D7018D
:100FA0008D917D01E82FE295EF70F0E091A18F70B7
:100FB000980101C0220F8A95EAF7892F822B81A31D
:100FC00082A1A22EA0948A2182A3B0EABA95F1F759
:100FD00083E1682E81E0782E80E090E0D3017D915E
:100FE0003D01472F42954F7050E0DA0190969C905A
:100FF000488159817F70D80102C0AA0FBB1F7A9522
:10100000E2F7BD01692109F067C0B801082E02C0EE
:10101000660F771F0A94E2F7462B572B59834883B4
:1010200001968C309105D1F681A18A2181A382A1FC
:10103000282B22A388819981C816D90641F0B09245
:101040005C010E94D51490935E0180935D0122960D
:10105000B1E0C435DB0709F09ECF80915C018823A5
:1010600051F180915D0190915E010E94E11406971B
:1010700010F180914C0190914D0190935501809316
:10108000540180914E0190914F01909357018093AC
:101090005601809150019091510190935901809394
:1010A0005801809152019091530190935B0180937C
:1010B0005A0110925C010E94EB0481E0DF91CF9114
:1010C0001F910F91FF90EF90DF90CF90BF90AF9066
:1010D0009F907F906F90089560E070E09DCFE82F23
:1010E000F0E0EE0FFF1FEC5AFE4F808191810895D2
:1010F000089590936401809363010895E0916301E2
:10110000F0916401309721F00190F081E02D099475
:1011100080E00895E0916301F0916401309721F03F
:101120000280F381E02D09940895E0916301F0912C
:101130006401309721F00480F581E02D0994089531
:1011400020916101309162012817390771F0909365
:10115000620180936101E0916301F0916401309735
:1011600021F00680F781E02D0994089520915F0118
:10117000309160012817390771F0909360018093D6
:101180005F01E0916301F0916401309721F00084E8
:10119000F185E02D0994089508950C94CC080E94DF
:1011A000CC140E9456070C9452155F926F927F9256
:1011B0008F929F92AF92BF92CF92DF92EF92FF9267
:1011C0000F931F93CF93DF93CDB7DEB72A970FB658
:1011D000F894DEBF0FBECDBF0E94B40796E6A92EDD
:1011E00091E0B92E00E010E088248394912C502ED9
:1011F000802F0E946F087C01F501C190D1905F01A2
:101200008C159D05B1F40F5F1F4F0430110579F760
:101210008FEF89838A831B820E94D5148160782F87
:101220009D838C8349815A816B818D810E948E09B7
:1012300036C08091F20181FD0E94780880E090E044
:10124000CE24DF243401082E02C0660C771C0A94D9
:10125000E2F7960126213721232B09F443C08E8320
:101260005F82E620F72081E0EF2809F480E088879C
:101270000E94D5148160782F9A8789874E815F817B
:1012800068858A850E948E09000F111FF801EA59AE
:10129000FE4F8081918168267926718260820E944A
:1012A000E1160E947E0890916501891709F10E945C
:1012B0007E08809365012A960FB6F894DEBF0FBEB4
:1012C000CDBFDF91CF911F910F91FF90EF90DF90F5
:1012D000CF90BF90AF909F908F907F906F905F90D6
:1012E0000C94EF0401968C30910509F0ABCF8BCFB5
:1012F0002A960FB6F894DEBF0FBECDBFDF91CF9117
:101300001F910F91FF90EF90DF90CF90BF90AF9023
:101310009F908F907F906F905F900895CF93DF9311
:10132000CDB7DEB72B970FB6F894DEBF0FBECDBF9B
:101330004F83588769877A878B87DE01119686E00D
:10134000FD0111928A95E9F785E0FE01379601903B
:101350000D928A95E1F749815A816B817C818D815B
:101360009E810E94D60F2B960FB6F894DEBF0FBE5B
:10137000CDBFDF91CF910895882309F4AFC09CEFD2
:10138000980F913A20F40E942F130C94F41390E2DA
:10139000980F983050F4877091E001C0990F8A95AA
:1013A000EAF7892F0E94AB13F0CF9BE5980F93309B
:1013B00070F4853A31F0863A39F083E890E00C9485
:1013C000A00881E890E0FBCF82E890E0F8CF98E5B4
:1013D000980F953108F082C0883A09F440C0893AE4
:1013E00009F440C08A3A09F440C08B3A09F440C07D
:1013F0008C3A09F440C08B3B09F440C08C3B09F4A3
:1014000040C08D3A09F440C0803B09F440C08E3A98
:1014100009F440C08F3A09F440C0813B09F440C050
:10142000823B09F440C0833B09F440C0843B09F48B
:1014300040C0853B09F440C0863B09F440C0873B6F
:1014400009F440C0883B09F440C0893B09F440C01E
:101450008A3B09F440C080E090E00C94B60882EE2C
:1014600090E0FBCF89EE90E0F8CF8AEE90E0F5CFE8
:1014700085EB90E0F2CF86EB90E0EFCF83EB90E04E
:10148000ECCF84EB90E0E9CF87EB90E0E6CF8CECFB
:1014900090E0E3CF8DEC90E0E0CF83E891E0DDCF0A
:1014A0008AE891E0DACF82E991E0D7CF84E991E050
:1014B000D4CF81E292E0D1CF83E292E0CECF84E23A
:1014C00092E0CBCF85E292E0C8CF86E292E0C5CF32
:1014D00087E292E0C2CF8AE292E0BFCF08958823EC
:1014E00029F19CEF980F913A20F40E946B130C9411
:1014F000F41390E2980F983050F4877091E001C097
:10150000990F8A95EAF7892F0E94B113F0CF9BE5D6
:10151000980F933020F480E090E00C94A008885A53
:10152000853120F480E090E00C94B608089588237B
:1015300021F00E94AB130C94F4130895882321F03A
:101540000E94B1130C94F41308958F929F92AF925E
:10155000BF92DF92EF92FF920F931F93CF93DF938F
:101560007C01D62FC72FFC01058102950F701281D7
:1015700011110E94CA130E942813D82E882371F0DB
:10158000112331F180E28D0F883010F182E00E944A
:1015900011130E94281391E0D82ED926EC2FE29542
:1015A000EF708E2F90E0FC01E852F54F0C94BE1FB7
:1015B000EA0AEA0A3B0B3B0B7A0B980B180B180B49
:1015C000A30B180B3E0C3E0CB00C180B180BB90CEF
:1015D000D12CE4CF8C2F807FCF70882311F0C2955F
:1015E000C07F1123A9F0CC2359F080E28D0F883001
:1015F00010F0D11109C08C2F0E94AB130E94F4137C
:101600008D2F0E94BC0914C08C2F0E94BC13F6CFF2
:101610008D2F0E946F0ACC2359F080E28D0F883005
:1016200010F0D11124C08C2F0E94B1130E94F4132A
:10163000DD2009F4A5C10E94041380FDA1C1F701BA
:1016400012820E94FE120E947D11C7010E94CC0CE2
:101650000E94FE12DF91CF911F910F91FF90EF90AA
:10166000DF90BF90AF909F908F900C949E118C2F25
:101670000E94C213DBCF8C2F807FCF70803211F09D
:10168000C295C07FDD2369F0D13021F1112361F1D2
:10169000002359F0F701858180FFB2CF8F708583D9
:1016A00004C0112361F0011104C08C2F0E94970A1D
:1016B000BFCF8C2F0130D1F70E94DE13B9CF0111BB
:1016C00006C00E94E1138C2F0E949E0AB1CF013008
:1016D000C1F7AECF112321F0043008F0A9CFE5CF38
:1016E000033008F0A5CFEFCF002369F38D2F0E94C0
:1016F0006F0A9ECF8C2F86958695837059F0813026
:1017000009F096CF112389F08D2F9C2F93700E94A2
:10171000B6088ECF112331F08D2F9C2F93700E942D
:10172000A00886CF80E090E0FACF80E090E0EFCF95
:101730008D2F112329F00E94EA150E94D61678CF2A
:101740000E945216FACF8C2F837009F048C01111F5
:101750006FCF2D2F229526952770220F220F6D2FE8
:101760006F70862E912CA12CB12C022E04C0880CF7
:10177000991CAA1CBB1C0A94D2F7D4FF1EC06FE0B0
:1017800070E080E090E004C0660F771F881F991F0B
:101790002A95D2F76095709580959095C695C695D7
:1017A000C370C23071F0A0F4682979298A299B2975
:1017B000C13091F00E9426113BCF60E070E0CB0178
:1017C000EDCF682979298A299B290E94421130CFBF
:1017D0000E942611C501B4010E940A1129CF1123CC
:1017E000C9F18C2F8170882309F422CF2D2F2295E7
:1017F00026952770220F220F6D2F6F70862E912C49
:10180000A12CB12C022E04C0880C991CAA1CBB1C54
:101810000A94D2F7D4FF20C06FE070E080E090E03F
:1018200004C0660F771F881F991F2A95D2F760950D
:10183000709580959095C695C695C370C23081F01D
:10184000B0F4682979298A299B29C130A1F00E9426
:101850000012EECE8695C7CF60E070E0CB01EBCFF3
:10186000682979298A299B290E941C12E1CE0E94AD
:101870000012C501B4010E94E411DACE8D2F90E070
:10188000FC01E05EF109E531F10508F061C0E55BBE
:10189000F34F0C94BE1F600C600C600C600C600C6D
:1018A000600C600C600C600C600C600C600C600CD8
:1018B000600C600C600C6D0C7B0C820C890C930C22
:1018C000DF708C2F8F71112321F00E947D118D2FDD
:1018D000EDCE0E949E118D2FF7CE112341F00330E3
:1018E00008F0A6CE8C2F8F710E94C311A1CE0430B8
:1018F00008F09ECEF7CF112339F08C2F8F710E9404
:101900007D1196CE1123C9F38C2F8F710E949E11E9
:101910008FCE112329F08C2F8F710E94681188CEF1
:101920000E945E1185CE112349F0CF718C2F0E9449
:101930007D1163E08C2F0E9408137ACE81E00E9413
:101940001113023008F474CE82E00E94111370CE9D
:10195000112319F0002389F253CE0023A9F2C6CE39
:101960004C2F4F706D2FC7010E94E9020E94841016
:101970005FCE4C2F4F706D2FC7010E94F10458CEDF
:10198000DF91CF911F910F91FF90EF90DF90BF906B
:10199000AF909F908F9008950F931F93CF93DF93F5
:1019A000EC01988189812B813C81232B39F08F3F79
:1019B00019F481E09F3F19F080E001C081E080FDD3
:1019C00013C0CE010E94C903882371F06881798118
:1019D0008A810E94DB128C010E9438120E94FF1043
:1019E000B801CE010E94A50ADF91CF911F910F91FE
:1019F00008950E94CA130E94DB130E949D130E9447
:101A0000F4130E9484170E94D61680E090E00E9492
:101A1000A00880E090E00C94B6080E94B9130C94E2
:101A2000F90C0E94D012E92FE295EF704E2F50E092
:101A3000FA013297EE30F105D8F4EF5DF24F0C94D5
:101A4000BE1F2F0D2F0D380D380D3A0D380D380DE6
:101A5000380D2F0D2F0D3F0D380D380D3F0D803FE8
:101A600019F020F4803E20F481E00895843FE1F3F2
:101A700080E00895803EC0F3813FD1F7F5CF93FB1E
:101A8000882780F90895CF93DF9300D000D01F926C
:101A9000CDB7DEB70F900F900F900F900F90DF91A2
:101AA000CF910895CF93DF9300D000D000D0CDB771
:101AB000DEB726960FB6F894DEBF0FBECDBFDF911E
:101AC000CF9108951F93CF93DF93C0916F0116E0DC
:101AD00080917001C81304C0DF91CF911F910895C8
:101AE000D0E01C9FF0011D9FF00D1124EF58FE4F18
:101AF0004081518162817381848195810E94520D60
:101B00002196C770E5CF4091A1015091A20160914B
:101B1000A3017091A4018091A5019091A6010C945C
:101B2000520D1F93CF93DF938091A60182958F7002
:101B3000D1F48091A3018823B1F080916F01D091FD
:101B40007001B091A101C091A2014091A4015091F6
:101B5000A501A1E0BF3F09F0A0E0BA016095709532
:101B600016E08D1304C0DF91CF911F9108954115A8
:101B70005105D9F1CF3FD9F120E090E020FD3CC0E4
:101B8000189FF001199FF00D1124EF58FE4F21818D
:101B90002C1332C020812B132FC0228121112CC085
:101BA000238134812417350720F1241B350B283C71
:101BB000310510F52091A6012F7020612093A60118
:101BC00026E0289FF001299FF00D1124EA58FE4FCE
:101BD00080818F708061808381EA91E00E94CC0CCB
:101BE000DF91CF911F910C94620D21E0C6CF2A2F77
:101BF000C4CF260F371FDBCF01968770B2CFAF92CD
:101C0000BF92CF92DF92EF92FF920F931F93CF93E9
:101C1000DF93CDB7DEB761970FB6F894DEBF0FBE86
:101C2000CDBF8C0185E0F801DE011D9601900D927B
:101C30008A95E1F7D8014C9111965C911197129613
:101C4000EC903091A1016091A2018091A40190914A
:101C5000A501009739F06F3F19F421E03F3F19F0DB
:101C600020E001C021E0B22FB170BB2E20FD90C159
:101C7000F801C380D480A090A301AA2009F432C146
:101C80002091A601C816D90610F1D601A81BB90BE0
:101C9000CD01FF24F394883C9105F0F0F12C207FD6
:101CA00009F0E9C07C2DD98AC88A6E2D89890E94E5
:101CB000430D81EA91E00E94CC0CE1EAF1E086E07C
:101CC000DF011D928A95E9F70E94830D1EC0809561
:101CD00090958C0D9D1DDDCF822F807F09F084C0F3
:101CE000651325C0341323C0FE2CE11020C02F70D3
:101CF00020612093A6010E94830D81EA91E00E9459
:101D0000CC0C8091A601F80185838F2D61960FB6CA
:101D1000F894DEBF0FBECDBFDF91CF911F910F9121
:101D2000FF90EF90DF90CF90BF90AF900895CD28B7
:101D300039F05F3F19F481E04F3F19F080E001C0B6
:101D400081E080FD24C081E08E25F82FF170FF2E08
:101D500080FF3FC080916F012091700136E08213B7
:101D600018C04D875E878D859E850E94D012292FD1
:101D700022952F70223008F1243030F59F7009F140
:101D8000D80115969C91907FE1F4FB2CBECF80E0AA
:101D9000DCCF90E0389FF001399FF00D1124EF580F
:101DA000FE4F6181561306C06081641303C06281D7
:101DB000E6120FC001968770D2CF9F7011F0882372
:101DC00021F3805E883008F3C8010E94CC0CBF2C40
:101DD000DCCFFE2CEE2009F498CF8091A601816023
:101DE0008093A601F12C91CF651314C0341312C057
:101DF000E11010C08091A601F8018583C8010E94FE
:101E0000CC0C86E0F801A1EAB1E001900D928A9530
:101E1000E1F75ACF4D875E878D859E850E94110D13
:101E2000882309F4BFC0EE2009F4BCC02091A601AC
:101E3000822F82958F7090E0029774F08091A101BB
:101E40009091A20198878F831986DB86CA862C879A
:101E5000CE0107960E94CC0C86E0F801A1EAB1E021
:101E600001900D928A95E1F70E94910D0E94830DD9
:101E7000FF24F3944ACF651314C0341312C0E11049
:101E800010C08091A601F8018583C8010E94CC0C86
:101E900086E0E1EAF1E0DF011D928A95E9F7FA2C8C
:101EA00034CF4D875E878D859E850E94110D8823D6
:101EB00009F478C0EE2009F475C02091A601822FA4
:101EC00082958F7090E002973CF28091A1019091F1
:101ED000A2019A8389831B82DD82CC822E83CE016C
:101EE0000196B8CFC816D90680F0F601E81BF90BA9
:101EF000CF01883C910570F0F12C7C2DD98AC88ADD
:101F00006E2D89890E94430DD8CE809590958C0DB9
:101F10009D1DEFCFFE2CEE2009F444C0651327C0B1
:101F2000341325C08091A60180FD18C0982F92958A
:101F30009F70292F30E02115310581F0D8011596C9
:101F40008C9315972F30310509F458CF9F5F9295E8
:101F5000907F8F70892B15968C9350CF86E0F80177
:101F6000A1EAB1E001900D928A95E1F7CECE4D87BE
:101F70005E878D859E850E94110D81116DCF8091A8
:101F8000A60181608093A601C8010E94CC0CBDCE41
:101F9000EE2041F04D875E878D859E850E94110D54
:101FA00081115ACFC8010E94CC0C62CF1F93CF93EE
:101FB000DF93CDB7DEB72C970FB6F894DEBF0FBE18
:101FC000CDBF4F83588769877A878B879C87CE01DF
:101FD00007960E94FF0D882349F19F8188852A85F5
:101FE0003B85232B39F08F3F19F481E09F3F19F097
:101FF00080E001C081E080FD08C04F81588569857F
:102000007A858B859C850E94520D16E080916F0128
:1020100090917001891348C02C960FB6F894DEBFDA
:102020000FBECDBFDF91CF911F91089586E0FE01D5
:102030003796DE01119601900D928A95E1F7FF81A6
:10204000E8856A857B856115710539F0EF3F19F4E4
:1020500081E0FF3F19F080E001C081E080FDD5CF35
:102060002091700130E0C901019687709927409155
:102070006F0150E084179507C9F1F983EA837D83E6
:102080006C8396E0929FD001939FB00D1124AF58BE
:10209000BE4FFE01319601900D929A95E1F7809323
:1020A00070010E94620DB1CF819FC00111248F5831
:1020B0009E4F0E94FF0D882309F4AECFE0916F017F
:1020C0001E9FF0011124EF58FE4F40815181628123
:1020D0007381848195810E94520D80916F0190E0FF
:1020E00001968770992780936F0190CF0E940D0D04
:1020F0001092700110926F01E1EAF1E086E0DF01D9
:102100001D928A95E9F788CFEF92FF920F931F9364
:10211000CF93DF938C01892B81F0F12CEE24E39493
:10212000E8012196F8018491843770F4843008F036
:1021300062C08130B1F08230B1F1DF91CF911F9157
:102140000F91FF90EF900895853709F44FC008F480
:102150003FC09CE7980F903780F78F770E946F0AF7
:102160004CC00E5F1F4FFE01849190E2980F983093
:1021700060F48770FE2D01C0FF0F8A95EAF78F2F5C
:102180000E94CD130E94F41302C00E94BC098F2D3F
:10219000882309F4C5CFEFE9FFE03197F1F700C0DC
:1021A00000008150F5CF0E5F1F4FFE01849190E239
:1021B000980F983050F48770FE2D01C0FF0F8A955C
:1021C000EAF78F2F0E94D313DDCF0E946F0ADFCF73
:1021D0000E5F1F4FFE01C491CC23C9F28FE99FE02F
:1021E0000197F1F700C00000C150F6CF0E5F1F4FFE
:1021F000FE01F490CCCF0E94BC098E01C8CF089597
:102200006093C9017093CA018093CB019093CC0174
:102210000C94F90C0F931F930091C9011091CA01FE
:102220002091CB013091CC01DC01CB01802B912B93
:10223000A22BB32B8093C9019093CA01A093CB0129
:10224000B093CC011F910F910C94F90C0F931F9335
:102250000091C9011091CA012091CB013091CC01AC
:10226000DC01CB0180239123A223B3238093C901F6
:102270009093CA01A093CB01B093CC011F910F9111
:102280000C94F90C0F931F930091C9011091CA018E
:102290002091CB013091CC01DC01CB01802791272B
:1022A000A227B3278093C9019093CA01A093CB01C1
:1022B000B093CC011F910F910C94F90C1092C501B1
:1022C0001092C6011092C7011092C8010C94F90C2B
:1022D00041E050E060E070E004C0440F551F661F0D
:1022E000771F8A95D2F74093C5015093C60160933A
:1022F000C7017093C8010C94F90C41E050E060E014
:1023000070E004C0440F551F661F771F8A95D2F7EF
:102310008091C5019091C601A091C701B091C801FB
:10232000842B952BA62BB72B8093C5019093C601C8
:10233000A093C701B093C8010C94F90C41E050E0A0
:1023400060E070E004C0440F551F661F771F8A9538
:10235000D2F740955095609570958091C501909108
:10236000C601A091C701B091C80184239523A6237B
:10237000B7238093C5019093C601A093C701B09382
:10238000C8010C94F90C41E050E060E070E004C03A
:10239000440F551F661F771F8A95D2F78091C5019C
:1023A0009091C601A091C701B091C80184279527DB
:1023B000A627B7278093C5019093C601A093C701B4
:1023C000B093C8010C94F90C0F931F930091C501B1
:1023D0001091C6012091C7013091C801DC01CB01E9
:1023E000802B912BA22BB32B8093C5019093C60118
:1023F000A093C701B093C8011F910F910C94F90CE1
:102400000F931F930091C5011091C6012091C70140
:102410003091C801DC01CB0180239123A223B32397
:102420008093C5019093C601A093C701B093C801E2
:102430001F910F910C94F90C0F931F930091C501FC
:102440001091C6012091C7013091C801DC01CB0178
:1024500080279127A227B3278093C5019093C601B7
:10246000A093C701B093C8011F910F910C94F90C70
:1024700008952CE0929F800D1124982F977041E0D1
:1024800001C0440F9A95EAF786958695869595E062
:10249000899FF0011124E955FE4F80E090E070E043
:1024A00050819B01082E02C0369527950A94E2F7C9
:1024B00021702195252724232527219301968530F6
:1024C000910571F708952CE0929F800D1124982FAB
:1024D000977086958695869525E0829FA0011124A8
:1024E00060E070E080E0FA01E60FF71FE955FE4F6B
:1024F000208130E0092E02C0369527950A94E2F734
:1025000021703327062E01C0220F0A94EAF7822B8E
:102510006F5F7F4F6530710531F70895BF92CF929D
:10252000DF92EF92FF920F931F93CF93DF938C0173
:10253000C090C501D090C601E090C701F090C801DD
:102540008091C9019091CA01A091CB01B091CC01B9
:10255000C82AD92AEA2AFB2ACFE1D0E0BC2ED7012B
:10256000C6010C2E04C0B695A795979587950A9439
:10257000D2F780FD0EC0219788F7B12C8B2DDF910B
:10258000CF911F910F91FF90EF90DF90CF90BF9070
:102590000895B8018C2F0E940E05019761F3EECFCC
:1025A000CF93DF93EC010E948E12BE010E940E05B4
:1025B000DF91CF9108951F93CF93DF93EB0190911B
:1025C0006E01992339F0CB010E94D012DF91CF9197
:1025D0001F910895882369F0CB010E948E12182F55
:1025E000682FCE010E943912BE01812F0E940E0574
:1025F000EDCFCB010E946312182FF6CF8091CD0151
:1026000085958595859508958091CD01877008956C
:1026100098E0899F90011124622B6093CD010C9466
:102620007D112091CD01809582238093CD01982F3B
:10263000977069F430E0482F082E000C550B2417D2
:10264000350729F08595859585950C949E110895FB
:102650009091CD01977081E009F480E00895909108
:1026600012019923D9F09091230297FF17C0982F58
:102670009695969596959F3131F1E0910001F091F4
:102680000101E90FF11D877021E030E001C0220F48
:102690008A95EAF78181822B818308952091000138
:1026A00030910101F90132969FEF40E05191851779
:1026B00051F09F3F19F4511101C0942F4F5F4E31DB
:1026C000A9F79F3F09F40895290F311D97FD3A9509
:1026D000F90182830895909112019923E9F0909174
:1026E000230297FF19C0982F9695969596959F313E
:1026F00019F1E0910001F0910101E90FF11D282F7E
:10270000277081E090E001C0880F2A95EAF7809554
:1027100091818923818308952091000130910101E5
:10272000F9013296205E3F4F9081891301C01082DB
:102730003196E217F307C1F7089581E090E0E09148
:102740000001F0910101E80FF91F1082019680321B
:102750009105A9F708959091F101892B8093F101DA
:102760000895982F90958091F10189238093F1012C
:1027700008951092F10108959091F001892B8093B2
:10278000F0010895982F90958091F001892380930E
:10279000F00108951092F00108959091EF01892BB6
:1027A0008093EF010895982F90958091EF018923F0
:1027B0008093EF0108951092EF0108958093CE0168
:1027C00008951092CE0108952091000130910101E9
:1027D000F9013196205E3F4F80E0919191118F5F1A
:1027E000E217F307D1F70895E0910001F09101019C
:1027F0008091F1018083E0910001F09101018081DD
:102800009091F001892B8083E0910001F09101010A
:1028100080819091EF01892B80839091CE01992343
:1028200061F0E0910001F09101018081892B8083AA
:102830000E94E41381111092CE01809100019091C9
:1028400001010C948A086DEE7EEF80E090E00E941A
:10285000F81F60E082E090E00E94E61F60E083E005
:1028600090E00E94E61F60E084E090E00E94E61F96
:1028700060E085E090E00C94E61F80E090E00E942C
:10288000E01F21E08D3E9E4F09F020E0822F089549
:1028900082E090E00C94D81F83E090E00C94D81F65
:1028A00084E090E00C94D81F682F84E090E00C94B2
:1028B000E61F80912902843039F11092F30120E45F
:1028C00088E190E00FB6F894A895809360000FBE61
:1028D0002093600080E00E94EF0483B7817F8460D2
:1028E00083BF83B7816083BF7894889583B78E7FD9
:1028F00083BF0FB6F894A89580916000886180939B
:102900006000109260000FBE089508950C94851425
:10291000CF930E9486140E94B4070E948514C0E0E1
:102920008C2F0E946F08892B31F4CF5FC430C1F720
:1029300080E0CF91089581E0FCCF0E940D0D0E94B0
:102940007E080C94EF041F920F920FB60F92112481
:102950008F939F93AF93BF938091F301811113C025
:1029600080911F0290912002A0912102B091220239
:102970004196A11DB11D80931F0290932002A09348
:102980002102B0932202BF91AF919F918F910F903E
:102990000FBE0F901F90189582E084BD93E095BD07
:1029A0009AEF97BD80936E0008952FB7F8948091A9
:1029B0001F0290912002A0912102B09122022FBF0C
:1029C0000895CF92DF92EF92FF920F931F932FB74C
:1029D000F89440911F025091200260912102709161
:1029E00022022FBF6A017B01EE24FF248C0120E02C
:1029F00030E0C016D106E206F30650F0481B590B32
:102A0000CA011F910F91FF90EF90DF90CF90089532
:102A100041505109F3CF1F920F920FB60F9211241C
:102A20008F939F93AF93BF9380911F029091200249
:102A3000A0912102B09122020196A11DB11D8093A7
:102A40001F0290932002A0932102B0932202BF9113
:102A5000AF919F918F910F900FBE0F901F9018957F
:102A60000E947B1BF8942FEF87EA91E6215080406B
:102A70009040E1F700C0000087E090EBDC0180931C
:102A8000320290933302A0933402B09335029CE05B
:102A900088E10FB6F894A895809360000FBE9093DC
:102AA0006000FFCF0E943D14811102C00E942314D8
:102AB0000E9448148093F2010E94501490E0909379
:102AC0002402809323020E944C14682F70E080E05F
:102AD00090E00C9400118091F60180FF12C060918B
:102AE000050185E0689FB00111247595679575957E
:102AF000679560387105A8F56115710581F581E06C
:102B0000089581FF09C06091050185E0689FB001CB
:102B1000112475956795EDCF82FF07C0609105017F
:102B200085E0689FB0011124E4CF9091F7019923CB
:102B3000A1F060910401961788F72091050185E0C6
:102B4000289F90011124929FA001939F500D112462
:102B500070E0CA010E94AA1FCCCF65E070E0862F0A
:102B600008958FE708958091F60180FF0CC0609171
:102B7000030170E075956795759567956115710509
:102B800039F581E0089581FF06C06091030170E08E
:102B900075956795F3CF82FF08C06091030170E0DF
:102BA0006038710558F38FE708958091F701882305
:102BB00069F060910201861780F790910301899F67
:102BC000C001112470E00E94AA1FEACF61E070E00A
:102BD000862F0895803F31F40E946B158195809374
:102BE000FA010895813F19F40E946B15F8CF823FD6
:102BF00031F40E946B1581958093F9010895833F0C
:102C000019F40E946B15F8CF893F29F40E94B3157F
:102C10008093FB0108958A3F21F40E94B3158195AA
:102C2000F7CF8B3F31F40E94B31581958093FC015F
:102C300008958C3F19F40E94B315F8CF843F31F406
:102C40008091F80181608093F8010895853F21F417
:102C50008091F8018260F7CF863F21F48091F801DE
:102C60008460F1CF873F21F48091F8018860EBCF39
:102C7000883F21F48091F8018061E5CF8D3F31F4E8
:102C80008091F60181608093F60108958E3F21F4D2
:102C90008091F6018260F7CF8F3FB9F78091F601FE
:102CA0008460F1CF803FC1F48091FA0187FD1092DA
:102CB000FA018091F90181110EC08091FA01811110
:102CC0000AC08091FB01811106C08091FC01811135
:102CD00002C01092F7010895813F29F48091FA0112
:102CE00018162CF3E6CF9091F901823F29F497FF53
:102CF000E0CF1092F901DDCF833F19F41916CCF320
:102D0000D8CF893F39F48091FB01181694F61092C0
:102D1000FB01CFCF8A3F29F48091FB0187FFC9CF08
:102D2000F6CF8B3F39F48091FC0187FFC2CF109220
:102D3000FC01BFCF8C3F29F48091FC011816BCF335
:102D4000B8CF843F31F48091F8018E7F8093F801F1
:102D5000B0CF853F21F48091F8018D7FF7CF863F7A
:102D600021F48091F8018B7FF1CF873F21F480918E
:102D7000F801877FEBCF883F21F48091F8018F7EA7
:102D8000E5CF8D3F31F48091F6018E7F8093F6017F
:102D900090CF8E3F21F48091F6018D7FF7CF8F3F4A
:102DA00009F087CF8091F6018B7FF0CF88EF91E01B
:102DB0000E9495080E94D5149093F5018093F40128
:102DC00008951F93CF93DF938091F4019091F501C3
:102DD0000E94E114AC019091F7019923D1F0209168
:102DE000060130E04217530780F08091F901C0914D
:102DF000FA01D091FB011091FC01811111C0C111A8
:102E00007FC0D1117DC011117BC0DF91CF911F9187
:102E10000895209107018AE0289F90011124E2CFB4
:102E20009F3F19F09F5F9093F701181624F40E94BA
:102E30006B158093F9018091F90187FF05C00E940D
:102E40006B1581958093F9011C1624F40E946B1573
:102E50008093FA018091FA0187FF05C00E946B15EB
:102E600081958093FA016091F901662331F1C09157
:102E7000FA01CC2311F1062E000C770B880B990B6D
:102E80000E94B11E23E333E343E35FE30E94151F77
:102E90000E94791E6093F9016C2FCC0F770B880B81
:102EA000990B0E94B11E23E333E343E35FE30E94E7
:102EB000151F0E94791E6093FA011D1624F40E94CA
:102EC000B3158093FB018091FB0187FF05C00E9431
:102ED000B31581958093FB01111624F40E94B3155C
:102EE0008093FC018091FC0187FF05C00E94B3150F
:102EF00081958093FC01DF91CF911F910C94D616A0
:102F00009F3F09F08FCFA0CFE8EFF1E085E0DF0130
:102F10001D928A95E9F71092F7011092F601089533
:102F200080911D020895CF93DF9300D01F92CDB7FB
:102F3000DEB79C0180912902843019F593E09983D2
:102F40003B832A839093E9008FEF9091E8008150B2
:102F500095FD06C095ED9A95F1F700008111F5CF2A
:102F60008091E80085FF0DC040E050E063E070E034
:102F7000CE0101960E94EE198091E8008E77809331
:102F8000E8000F900F900F90DF91CF910895CF93AD
:102F9000DF9300D01F92CDB7DEB7209129022430F5
:102FA00031F522E02983805891099B838A8383E04D
:102FB0008093E9008FEF9091E800815095FD06C065
:102FC00095ED9A95F1F700008111F5CF8091E80019
:102FD00085FF0DC040E050E063E070E0CE01019657
:102FE0000E94EE198091E8008E778093E8000F90A0
:102FF0000F900F90DF91CF9108959C01809129024D
:103000008430F9F482E08093E9009FEF8091E8003A
:10301000915085FD06C085ED8A95F1F7000091116C
:10302000F5CF8091E80085FF0CC040E050E065E0FE
:1030300070E0C9010E94EE198091E8008E778093BC
:10304000E8000895CF93DF93EC018091290284304A
:1030500071F590911201992369F19091230297FFE4
:1030600029C08093E9008FEF9091E800815095FD91
:1030700006C095E19A95F1F700008111F5CF809196
:10308000E80085FF14C040E050E060E270E0CE014F
:103090000E94EE198091E8008E778093E80080E22C
:1030A000FE01ADEFB1E001900D928A95E1F7DF915D
:1030B000CF91089581E08093E9008FEF9091E8002F
:1030C000815095FD06C095ED9A95F1F700008111AC
:1030D000F5CF8091E80085FFEACF40E050E068E05E
:1030E00070E0D5CF80912802811109C00E947B1B1E
:1030F0000E94D81B8091E20084608093E2000895D2
:10310000109228020895089508950C949D1442E0A9
:1031100061EC81E00E94F81A42E061EC82E00E94DA
:10312000F81A42E061EC83E00E94F81A42E261EC96
:1031300084E00C94F81A80912B02833009F455C076
:1031400030F4813071F1823009F491C008958A30F1
:1031500009F47DC08B3009F463C0893009F044C0A4
:1031600080912A02813209F03FC080912E02909115
:103170002F02009711F00397B9F58091E800877F3F
:103180008093E8008091E80082FF2AC08091F100DE
:1031900080931D028091E8008B778093E8000C9467
:1031A0002D1B80912A02813AF9F48091E800877FF3
:1031B0008093E80080912E0290912F02892B61F478
:1031C00060E28DEF91E070E00E943D1A8091E8008E
:1031D0008B778093E800089560E080E090E0F3CF83
:1031E000809129028111CECF089580912A02813ADF
:1031F000D9F780912E0290912F02892BA9F7809107
:10320000E800877F8093E8008091E80080FFFCCF92
:10321000809112018093F1008091E8008E77BDCFFC
:1032200080912A02813201F780912E0290912F0223
:10323000892BD1F68091E800877F8093E8000E9477
:103240002D1B80912C02809312010C940D0D809106
:103250002A02813249F68091E800877F8093E80056
:103260000E942D1B80912D0280931E020895809153
:103270002A02813A09F0B8CF8091E800877F8093D5
:10328000E8008091E80080FFFCCF80911E02C2CF51
:1032900084B7877F84BF0FB6F894A89580916000AB
:1032A000886180936000109260000FBE80E8809378
:1032B0006100109261000E94CD080E947B1B0E9459
:1032C000D81B8091E20084608093E20078940E9491
:1032D0005D1E0E94CF0888E091E00E9479088091ED
:1032E0002902853019F00E94D508F9CF0E9459149F
:1032F00080912702882399F30E948814882379F308
:103300000E94D819ECCF292F33272330310579F1CA
:1033100058F421303105F1F02230310519F180E007
:1033200090E020E030E01AC02132310599F12232DC
:103330003105A9F7643098F770E0FB01EE0FFF1F2D
:10334000E95DFE4F208131816D5D7E4FFB01808103
:1033500090E004C082E190E021E334E0FA0131839F
:10336000208308958DE690E024EC33E0F7CF992791
:103370008130910561F028F0029789F6E0E9F3E0E9
:1033800002C0E0ECF3E0849190E09F01E7CFE6EA31
:10339000F3E0F9CF643008F0C2CFE62FF0E0EE0F93
:1033A000FF1FE15DFE4F2081318189E090E0D6CFA3
:1033B00080E189BD82E189BD09B400FEFDCF809125
:1033C000D8008F7D8093D8008091E0008260809348
:1033D000E0008091E00081FDFCCF0895AF92BF92A4
:1033E000DF92EF92FF920F931F93CF93DF93EC0145
:1033F0008B017A010E944C1BD82E811124C0E1144C
:10340000F10439F0F70180819181081B190BC80F75
:10341000D91FA12CB12C01151105A9F08091E8004C
:1034200085FD22C08091E8008E778093E800E1144A
:10343000F104A1F0F70180819181A80EB91EB1823B
:10344000A08285E0D82E8D2DDF91CF911F910F9115
:10345000FF90EF90DF90BF90AF9008950E944C1BBB
:103460008823C9F2D82EEFCF89918093F1000150C3
:103470001109FFEFAF1ABF0ACECF20913002309171
:10348000310226173707A8F06115710529F420913C
:10349000E8002E772093E800FC0120E0611571051B
:1034A00051F4211108C08091E80082FF33C080E010
:1034B0000895B901F1CF809129028823B9F18530AF
:1034C000B9F18091E80083FD2FC08091E80082FD72
:1034D000EACF8091E80080FFE1CF2091F300809156
:1034E000F20090E0922B6115710519F0883091057A
:1034F00050F021E0089709F020E08091E8008E77F5
:103500008093E800CBCF21912093F10061507109A5
:103510000196E9CF80912902882341F0853041F05E
:103520008091E80083FFBFCF81E0089582E0089595
:1035300083E0089520913002309131022617370739
:10354000A8F06115710529F42091E8002E772093E9
:10355000E800FC0120E06115710551F4211108C05B
:103560008091E80082FF34C080E00895B901F1CF76
:10357000809129028823C1F18530C1F18091E80052
:1035800083FD30C08091E80082FDEACF8091E800A1
:1035900080FFE1CF2091F3008091F20090E0922B28
:1035A0006115710519F08830910550F021E00897F8
:1035B00009F020E08091E8008E778093E800CBCF7F
:1035C00024912093F1003196615071090196E8CF62
:1035D00080912902882341F0853041F08091E800F4
:1035E00083FFBECF81E0089582E0089583E00895CF
:1035F000982F973028F08F708093E90081E008952C
:103600009093E900981751F07091EC002091ED0033
:103610005091F00021FD06C09F5FEBCF242F762F45
:1036200050E0F8CF3091EB003E7F3093EB003091CB
:10363000ED003D7F3093ED003091EB003160309331
:10364000EB007093EC002093ED005093F00020917C
:10365000EE0027FDE1CF80E0089580912A0287FFE8
:1036600013C08091E80082FF06C08091E8008B774C
:103670008093E80004C0809129028111F2CF08955F
:10368000809129028823D9F38091E80080FFF8CF48
:103690008091E8008E77ECCF2091E4003091E50036
:1036A00085E69091EC0090FD20C09091E80092FD9D
:1036B00020C090912902992391F0953091F090913A
:1036C000EB0095FD10C04091E4005091E5004217D9
:1036D000530739F381509A0121F784E0089582E07D
:1036E000089583E0089581E008959091E80090FFA7
:1036F000E0CF80E008950E94E91B0E94F11BE0EEFC
:10370000F0E0808181608083E8EDF0E080818F7758
:10371000808319BCA7EDB0E08C918E7F8C93808163
:103720008F7E80831092280208950F931F93CF936A
:10373000DF930E94E91B0E94F11BC8EDD0E0888155
:103740008F77888388818068888388818F7D88834C
:1037500019BC109229021092250210922702109291
:10376000260200EE10E0F80180818B7F8083888143
:103770008160888342E060E080E00E94F81AE1EE18
:10378000F0E080818E7F8083E2EEF0E080818160D6
:103790008083808188608083F80180818E7F808330
:1037A000888180618883DF91CF911F910F91089567
:1037B000E8EDF0E080818F7E8083E7EDF0E08081AE
:1037C0008160808384E082BF81E0809328020C9432
:1037D000951BE8EDF0E080818E7F80831092E200FF
:1037E00008951092DA001092E10008951F920F924E
:1037F0000FB60F9211242F933F934F935F936F93C4
:103800007F938F939F93AF93BF93EF93FF93809199
:10381000E10082FF0BC08091E20082FF07C080912F
:10382000E1008B7F8093E1000E945C1E8091DA00B2
:1038300080FF19C08091D80080FF15C08091DA0008
:103840008E7F8093DA008091D90080FF94C080E160
:1038500089BD82E189BD09B400FEFDCF81E080937E
:1038600029020E9472188091E10080FF19C08091A6
:10387000E20080FF15C08091E2008E7F8093E2001D
:103880008091E20080618093E2008091D8008062A4
:103890008093D80019BC85E0809329020E94841887
:1038A0008091E10084FF29C08091E20084FF25C05F
:1038B00080E189BD82E189BD09B400FEFDCF809120
:1038C000D8008F7D8093D8008091E1008F7E809317
:1038D000E1008091E2008F7E8093E2008091E2001F
:1038E00081608093E20080912502882309F449C019
:1038F00084E0809329020E9485188091E10083FF73
:1039000029C08091E20083FF25C08091E100877F7C
:103910008093E10082E08093290210922502809139
:10392000E1008E7F8093E1008091E2008E7F8093A2
:10393000E2008091E20080618093E20042E060E07A
:1039400080E00E94F81A8091F00088608093F00077
:103950000E948318FF91EF91BF91AF919F918F913A
:103960007F916F915F914F913F912F910F900FBE7B
:103970000F901F90189519BC109229020E94801870
:1039800072CF8091E30087FD02C081E0B2CF83E077
:10399000B0CF1F920F920FB60F9211242F933F9327
:1039A0004F935F936F937F938F939F93AF93BF9347
:1039B000CF93EF93FF93C091E900CF708091EC001B
:1039C0001092E9008091F000877F8093F000789456
:1039D0000E94051D1092E9008091F000886080939C
:1039E000F000C093E900FF91EF91CF91BF91AF91AB
:1039F0009F918F917F916F915F914F913F912F9107
:103A00000F900FBE0F901F9018951F93CF93DF93C9
:103A1000CDB7DEB7AA970FB6F894DEBF0FBECDBF05
:103A2000EAE2F2E08091F100819322E0E233F207D2
:103A3000C9F70E949B188091E80083FF44C08091E1
:103A40002A0290912B02492F50E04A30510508F08C
:103A50003AC0FA01E25DF24E0C94BE1F381D5C1DA7
:103A6000631D5C1D631DB71DDA1D631D2F1E3C1EEB
:103A7000803879F0823839F580912E028F708093EA
:103A8000E9008091EB0085FB882780F91092E9001E
:103A900006C0809126029091270291118260909138
:103AA000E800977F9093E8008093F1001092F10076
:103AB0008091E8008E772DC0282F2D7F21F4882358
:103AC000D1F0823059F18091E80083FF0AC08091E3
:103AD000E800877F8093E8008091EB00806280930C
:103AE000EB00AA960FB6F894DEBF0FBECDBFDF91F4
:103AF000CF911F91089580912C02813021F793304E
:103B000009F080E0809327021092E9008091E8009C
:103B1000877F8093E8000E942D1BD5CF80912C02D7
:103B20008111F2CF80912E028F7069F28093E900AB
:103B30002091EB0020FFE8CF933031F48091EB002F
:103B400080628093EB00E0CF9091EB0090619093C6
:103B5000EB0021E030E001C0220F8A95EAF72093C4
:103B6000EA001092EA008091EB008860EACF8111B0
:103B7000AACF10912C021F778091E3008078812BCF
:103B80008093E3008091E800877F8093E8000E94A3
:103B90002D1B8091E80080FFFCCF8091E3008068BE
:103BA0008093E300111104C082E0809329028BCF3F
:103BB00083E0FBCF8058823008F085CF80912C02C3
:103BC00090912D028C3D23E09207A1F583E08A833A
:103BD0008AE289834FB7F894DE01139620E03EE035
:103BE00051E2E32FF0E050935700E49120FF03C02F
:103BF000E295EF703F5FEF708E2F90E0EA30C0F0FB
:103C0000C7968D939D932F5F243159F74FBF8091B5
:103C1000E800877F8093E8006AE270E0CE010196B9
:103C20000E943D1A8091E8008B778093E8004BCF8B
:103C3000C096E7CFAE014F5F5F4F60912E020E94AA
:103C40008319BC01892B09F43ECF9091E800977F3E
:103C50009093E80089819A810E949A1AE3CF803874
:103C600009F031CF8091E800877F8093E800809150
:103C700025028093F1001CCF811125CF90912C0259
:103C8000923008F020CF8091E800877F8093E80091
:103C9000909325020E942D1B80912502882311F00C
:103CA00084E005C08091E30087FDFACF81E0809336
:103CB00029020E94871807CF0895CF938091290287
:103CC000882399F0C091E900CF708091EC0080FDCD
:103CD0000EC080E0C82B1092E9008091E80083FDBF
:103CE0000E94051DCF70C093E900CF91089580E830
:103CF000F1CF0E94801E6894B1110C940F1F08959B
:103D00000E94F41E88F09F5798F0B92F9927B75159
:103D1000B0F0E1F0660F771F881F991F1AF0BA956F
:103D2000C9F714C0B13091F00E940E1FB1E00895A0
:103D30000C940E1F672F782F8827B85F39F0B93F92
:103D4000CCF3869577956795B395D9F73EF4909522
:103D50008095709561957F4F8F4F9F4F0895E894A0
:103D600009C097FB3EF490958095709561957F4FC3
:103D70008F4F9F4F9923A9F0F92F96E9BB27939571
:103D8000F695879577956795B795F111F8CFFAF481
:103D9000BB0F11F460FF1BC06F5F7F4F8F4F9F4FB2
:103DA00016C0882311F096E911C0772321F09EE810
:103DB000872F762F05C0662371F096E8862F70E076
:103DC00060E02AF09A95660F771F881FDAF7880F50
:103DD0009695879597F9089557FD9058440F551F6C
:103DE00059F05F3F71F04795880F97FB991F61F07D
:103DF0009F3F79F087950895121613061406551FF4
:103E0000F2CF4695F1DF08C0161617061806991F5F
:103E1000F1CF86957105610508940895E894BB2754
:103E200066277727CB0197F908950E94281F0C94E5
:103E3000991F0E948B1F38F00E94921F20F095233B
:103E400011F00C94821F0C94881F11240C940F1FE6
:103E50000E94EC1E70F3959FC1F3950F50E0551F23
:103E6000629FF001729FBB27F00DB11D639FAA27CF
:103E7000F00DB11DAA1F649F6627B00DA11D661F1E
:103E8000829F2227B00DA11D621F739FB00DA11D3F
:103E9000621F839FA00D611D221F749F3327A00DF9
:103EA000611D231F849F600D211D822F762F6A2F95
:103EB00011249F5750409AF0F1F088234AF0EE0FFA
:103EC000FF1FBB1F661F771F881F91505040A9F727
:103ED0009E3F510580F00C94821F0C940F1F5F3F92
:103EE000E4F3983ED4F3869577956795B795F79563
:103EF000E7959F5FC1F7FE2B880F911D96958795DB
:103F000097F9089597F99F6780E870E060E0089559
:103F10009FEF80EC089500240A94161617061806E1
:103F20000906089500240A941216130614060506BD
:103F30000895092E0394000C11F4882352F0BB0F4E
:103F400040F4BF2B11F460FF04C06F5F7F4F8F4FB1
:103F50009F4F089597FB072E16F4009407D077FD26
:103F600009D00E94C41F07FC05D03EF490958195AE
:103F70009F4F0895709561957F4F0895EE0FFF1F35
:103F80000590F491E02D0994AA1BBB1B51E107C0D9
:103F9000AA1FBB1FA617B70710F0A61BB70B881FD9
:103FA000991F5A95A9F780959095BC01CD01089568
:103FB000F999FECF92BD81BDF89A992780B50895F1
:103FC000A8E1B0E042E050E00C940020262FF999DF
:103FD000FECF92BD81BDF89A019700B4021639F068
:103FE0001FBA20BD0FB6F894FA9AF99A0FBE089539
:103FF0000196272F0E94E71F0C94E61FDC01CB01DE
:10400000FC01F999FECF06C0F2BDE1BDF89A3196E8
:1040100000B40D9241505040B8F70895F894FFCF86
:10402000CF012808140A321E90172218FD17C7174F
:10403000931701929395963436F6F5F4F1F0339791
:1040400035F794404D3639FF04B2047C044304D65E
:0840500003EF03080421040042
:00000001FF
